{
  "contractName": "SmartNameRegistry",
  "abi": [
    {
      "anonymous": false,
      "inputs": [
        {
          "indexed": false,
          "internalType": "bytes32",
          "name": "id",
          "type": "bytes32"
        },
        {
          "indexed": false,
          "internalType": "contract SmartName",
          "name": "smartName",
          "type": "address"
        }
      ],
      "name": "LogForAbandonByRegistry",
      "type": "event"
    },
    {
      "anonymous": false,
      "inputs": [
        {
          "indexed": false,
          "internalType": "bytes32",
          "name": "id",
          "type": "bytes32"
        },
        {
          "indexed": false,
          "internalType": "contract SmartName",
          "name": "smartName",
          "type": "address"
        }
      ],
      "name": "LogForAdministratorUpdateByRegistry",
      "type": "event"
    },
    {
      "anonymous": false,
      "inputs": [
        {
          "indexed": false,
          "internalType": "bytes32",
          "name": "id",
          "type": "bytes32"
        },
        {
          "indexed": false,
          "internalType": "contract SmartName",
          "name": "smartName",
          "type": "address"
        }
      ],
      "name": "LogForRecordUpdateByRegistry",
      "type": "event"
    },
    {
      "anonymous": false,
      "inputs": [
        {
          "indexed": false,
          "internalType": "bytes32",
          "name": "id",
          "type": "bytes32"
        },
        {
          "indexed": false,
          "internalType": "contract SmartName",
          "name": "smartName",
          "type": "address"
        }
      ],
      "name": "LogForRegisterByRegistry",
      "type": "event"
    },
    {
      "constant": true,
      "inputs": [
        {
          "internalType": "address",
          "name": "",
          "type": "address"
        }
      ],
      "name": "administrators",
      "outputs": [
        {
          "internalType": "address",
          "name": "addr",
          "type": "address"
        },
        {
          "internalType": "uint256",
          "name": "nbSmartNames",
          "type": "uint256"
        }
      ],
      "payable": false,
      "stateMutability": "view",
      "type": "function"
    },
    {
      "constant": true,
      "inputs": [
        {
          "internalType": "bytes32",
          "name": "",
          "type": "bytes32"
        }
      ],
      "name": "indexes",
      "outputs": [
        {
          "internalType": "uint256",
          "name": "",
          "type": "uint256"
        }
      ],
      "payable": false,
      "stateMutability": "view",
      "type": "function"
    },
    {
      "constant": true,
      "inputs": [],
      "name": "nbSmartNamesTotal",
      "outputs": [
        {
          "internalType": "uint256",
          "name": "",
          "type": "uint256"
        }
      ],
      "payable": false,
      "stateMutability": "view",
      "type": "function"
    },
    {
      "constant": true,
      "inputs": [
        {
          "internalType": "bytes32",
          "name": "",
          "type": "bytes32"
        }
      ],
      "name": "smartNames",
      "outputs": [
        {
          "internalType": "contract SmartName",
          "name": "",
          "type": "address"
        }
      ],
      "payable": false,
      "stateMutability": "view",
      "type": "function"
    },
    {
      "constant": false,
      "inputs": [
        {
          "internalType": "bytes16",
          "name": "_name",
          "type": "bytes16"
        },
        {
          "internalType": "bytes4",
          "name": "_ext",
          "type": "bytes4"
        }
      ],
      "name": "register",
      "outputs": [
        {
          "internalType": "bytes32",
          "name": "",
          "type": "bytes32"
        },
        {
          "internalType": "contract SmartName",
          "name": "",
          "type": "address"
        }
      ],
      "payable": false,
      "stateMutability": "nonpayable",
      "type": "function"
    },
    {
      "constant": false,
      "inputs": [
        {
          "internalType": "bytes32",
          "name": "_id",
          "type": "bytes32"
        }
      ],
      "name": "abandon",
      "outputs": [],
      "payable": false,
      "stateMutability": "nonpayable",
      "type": "function"
    },
    {
      "constant": false,
      "inputs": [
        {
          "internalType": "bytes32",
          "name": "_id",
          "type": "bytes32"
        },
        {
          "internalType": "bytes32",
          "name": "_unlocker",
          "type": "bytes32"
        }
      ],
      "name": "abandonWithUnlocker",
      "outputs": [],
      "payable": false,
      "stateMutability": "nonpayable",
      "type": "function"
    },
    {
      "constant": false,
      "inputs": [
        {
          "internalType": "bytes32",
          "name": "_id",
          "type": "bytes32"
        },
        {
          "internalType": "address",
          "name": "_newAdministrator",
          "type": "address"
        }
      ],
      "name": "modifyAdministrator",
      "outputs": [
        {
          "internalType": "bytes32",
          "name": "",
          "type": "bytes32"
        },
        {
          "internalType": "contract SmartName",
          "name": "",
          "type": "address"
        }
      ],
      "payable": false,
      "stateMutability": "nonpayable",
      "type": "function"
    },
    {
      "constant": false,
      "inputs": [
        {
          "internalType": "bytes32",
          "name": "_id",
          "type": "bytes32"
        },
        {
          "internalType": "address",
          "name": "_newAdministrator",
          "type": "address"
        },
        {
          "internalType": "bytes32",
          "name": "_unlocker",
          "type": "bytes32"
        }
      ],
      "name": "modifyAdministratorWithUnlocker",
      "outputs": [
        {
          "internalType": "bytes32",
          "name": "",
          "type": "bytes32"
        },
        {
          "internalType": "contract SmartName",
          "name": "",
          "type": "address"
        }
      ],
      "payable": false,
      "stateMutability": "nonpayable",
      "type": "function"
    },
    {
      "constant": false,
      "inputs": [
        {
          "internalType": "bytes32",
          "name": "_id",
          "type": "bytes32"
        },
        {
          "internalType": "address",
          "name": "_newRecord",
          "type": "address"
        }
      ],
      "name": "modifyRecord",
      "outputs": [
        {
          "internalType": "bytes32",
          "name": "",
          "type": "bytes32"
        },
        {
          "internalType": "contract SmartName",
          "name": "",
          "type": "address"
        }
      ],
      "payable": false,
      "stateMutability": "nonpayable",
      "type": "function"
    },
    {
      "constant": false,
      "inputs": [
        {
          "internalType": "bytes32",
          "name": "_id",
          "type": "bytes32"
        },
        {
          "internalType": "address",
          "name": "_newRecord",
          "type": "address"
        },
        {
          "internalType": "bytes32",
          "name": "_unlocker",
          "type": "bytes32"
        }
      ],
      "name": "modifyRecordWithUnlocker",
      "outputs": [
        {
          "internalType": "bytes32",
          "name": "",
          "type": "bytes32"
        },
        {
          "internalType": "contract SmartName",
          "name": "",
          "type": "address"
        }
      ],
      "payable": false,
      "stateMutability": "nonpayable",
      "type": "function"
    },
    {
      "constant": false,
      "inputs": [
        {
          "internalType": "bytes32",
          "name": "_id",
          "type": "bytes32"
        },
        {
          "internalType": "bytes32",
          "name": "_unlocker",
          "type": "bytes32"
        }
      ],
      "name": "setUnlocker",
      "outputs": [],
      "payable": false,
      "stateMutability": "nonpayable",
      "type": "function"
    },
    {
      "constant": false,
      "inputs": [
        {
          "internalType": "bytes32",
          "name": "_id",
          "type": "bytes32"
        }
      ],
      "name": "removeUnlocker",
      "outputs": [],
      "payable": false,
      "stateMutability": "nonpayable",
      "type": "function"
    },
    {
      "constant": true,
      "inputs": [
        {
          "internalType": "bytes32",
          "name": "_id",
          "type": "bytes32"
        },
        {
          "internalType": "bytes32",
          "name": "_unlocker",
          "type": "bytes32"
        }
      ],
      "name": "isUnlocker",
      "outputs": [
        {
          "internalType": "bool",
          "name": "",
          "type": "bool"
        }
      ],
      "payable": false,
      "stateMutability": "view",
      "type": "function"
    },
    {
      "constant": true,
      "inputs": [
        {
          "internalType": "bytes32",
          "name": "_id",
          "type": "bytes32"
        }
      ],
      "name": "getSmartName",
      "outputs": [
        {
          "internalType": "bytes32",
          "name": "",
          "type": "bytes32"
        },
        {
          "internalType": "contract SmartName",
          "name": "",
          "type": "address"
        },
        {
          "internalType": "bytes16",
          "name": "",
          "type": "bytes16"
        },
        {
          "internalType": "bytes4",
          "name": "",
          "type": "bytes4"
        },
        {
          "internalType": "address",
          "name": "",
          "type": "address"
        },
        {
          "internalType": "address",
          "name": "",
          "type": "address"
        }
      ],
      "payable": false,
      "stateMutability": "view",
      "type": "function"
    },
    {
      "constant": true,
      "inputs": [],
      "name": "getAdministrator",
      "outputs": [
        {
          "internalType": "address",
          "name": "",
          "type": "address"
        },
        {
          "internalType": "uint256",
          "name": "",
          "type": "uint256"
        },
        {
          "internalType": "bytes32[]",
          "name": "",
          "type": "bytes32[]"
        }
      ],
      "payable": false,
      "stateMutability": "view",
      "type": "function"
    },
    {
      "constant": true,
      "inputs": [
        {
          "internalType": "bytes32",
          "name": "_id",
          "type": "bytes32"
        }
      ],
      "name": "getAdministratorOf",
      "outputs": [
        {
          "internalType": "address",
          "name": "",
          "type": "address"
        },
        {
          "internalType": "uint256",
          "name": "",
          "type": "uint256"
        },
        {
          "internalType": "bytes32[]",
          "name": "",
          "type": "bytes32[]"
        }
      ],
      "payable": false,
      "stateMutability": "view",
      "type": "function"
    },
    {
      "constant": true,
      "inputs": [
        {
          "internalType": "address",
          "name": "_address",
          "type": "address"
        }
      ],
      "name": "getAdministratorByAddress",
      "outputs": [
        {
          "internalType": "address",
          "name": "",
          "type": "address"
        },
        {
          "internalType": "uint256",
          "name": "",
          "type": "uint256"
        },
        {
          "internalType": "bytes32[]",
          "name": "",
          "type": "bytes32[]"
        }
      ],
      "payable": false,
      "stateMutability": "view",
      "type": "function"
    },
    {
      "constant": true,
      "inputs": [],
      "name": "getNbSmartNamesTotal",
      "outputs": [
        {
          "internalType": "uint256",
          "name": "",
          "type": "uint256"
        }
      ],
      "payable": false,
      "stateMutability": "view",
      "type": "function"
    },
    {
      "constant": true,
      "inputs": [
        {
          "internalType": "bytes16",
          "name": "_name",
          "type": "bytes16"
        },
        {
          "internalType": "bytes4",
          "name": "_ext",
          "type": "bytes4"
        }
      ],
      "name": "getIdOf",
      "outputs": [
        {
          "internalType": "bytes32",
          "name": "",
          "type": "bytes32"
        }
      ],
      "payable": false,
      "stateMutability": "pure",
      "type": "function"
    }
  ],
  "bytecode": "0x608060405234801561001057600080fd5b50614fb7806100206000396000f3fe60806040523480156200001157600080fd5b5060043610620001475760003560e01c806386f51b2711620000bd578063c8b9fb76116200007b578063c8b9fb7614620009b7578063d47c430914620009fc578063d59b2e701462000a4f578063e14eeeac1462000ad0578063ff3b1dc21462000b0b5762000147565b806386f51b271462000703578063a4242091146200079b578063a865e1b614620007cc578063ac8972de146200086e578063ba9bdc3e14620009465762000147565b806336408689116200010b5780633640868914620003c5578063751aaed7146200045d57806376be158514620004ff57806378f55d6e146200058d578063849ac6f0146200064f5762000147565b80624796b1146200014c57806316967407146200017d57806317e39e45146200021a5780631e501241146200036a57806330ad805d14620003a5575b600080fd5b6200017b600480360360208110156200016457600080fd5b810190808035906020019092919050505062000b2b565b005b6200018762000c82565b604051808473ffffffffffffffffffffffffffffffffffffffff1673ffffffffffffffffffffffffffffffffffffffff16815260200183815260200180602001828103825283818151815260200191508051906020019060200280838360005b8381101562000204578082015181840152602081019050620001e7565b5050505090500194505050505060405180910390f35b62000249600480360360208110156200023257600080fd5b810190808035906020019092919050505062000c9d565b604051808781526020018673ffffffffffffffffffffffffffffffffffffffff1673ffffffffffffffffffffffffffffffffffffffff168152602001856fffffffffffffffffffffffffffffffff19166fffffffffffffffffffffffffffffffff19168152602001847bffffffffffffffffffffffffffffffffffffffffffffffffffffffff19167bffffffffffffffffffffffffffffffffffffffffffffffffffffffff191681526020018373ffffffffffffffffffffffffffffffffffffffff1673ffffffffffffffffffffffffffffffffffffffff1681526020018273ffffffffffffffffffffffffffffffffffffffff1673ffffffffffffffffffffffffffffffffffffffff168152602001965050505050505060405180910390f35b620003a3600480360360408110156200038257600080fd5b810190808035906020019092919080359060200190929190505050620011c0565b005b620003af6200133f565b6040518082815260200191505060405180910390f35b6200041460048036036040811015620003dd57600080fd5b8101908080359060200190929190803573ffffffffffffffffffffffffffffffffffffffff16906020019092919050505062001345565b604051808381526020018273ffffffffffffffffffffffffffffffffffffffff1673ffffffffffffffffffffffffffffffffffffffff1681526020019250505060405180910390f35b620004b6600480360360608110156200047557600080fd5b8101908080359060200190929190803573ffffffffffffffffffffffffffffffffffffffff169060200190929190803590602001909291905050506200149c565b604051808381526020018273ffffffffffffffffffffffffffffffffffffffff1673ffffffffffffffffffffffffffffffffffffffff1681526020019250505060405180910390f35b62000544600480360360208110156200051757600080fd5b81019080803573ffffffffffffffffffffffffffffffffffffffff1690602001909291905050506200151e565b604051808373ffffffffffffffffffffffffffffffffffffffff1673ffffffffffffffffffffffffffffffffffffffff1681526020018281526020019250505060405180910390f35b620005bc60048036036020811015620005a557600080fd5b810190808035906020019092919050505062001562565b604051808473ffffffffffffffffffffffffffffffffffffffff1673ffffffffffffffffffffffffffffffffffffffff16815260200183815260200180602001828103825283818151815260200191508051906020019060200280838360005b83811015620006395780820151818401526020810190506200061c565b5050505090500194505050505060405180910390f35b620006ba600480360360408110156200066757600080fd5b8101908080356fffffffffffffffffffffffffffffffff1916906020019092919080357bffffffffffffffffffffffffffffffffffffffffffffffffffffffff1916906020019092919050505062001833565b604051808381526020018273ffffffffffffffffffffffffffffffffffffffff1673ffffffffffffffffffffffffffffffffffffffff1681526020019250505060405180910390f35b62000752600480360360408110156200071b57600080fd5b8101908080359060200190929190803573ffffffffffffffffffffffffffffffffffffffff16906020019092919050505062001e72565b604051808381526020018273ffffffffffffffffffffffffffffffffffffffff1673ffffffffffffffffffffffffffffffffffffffff1681526020019250505060405180910390f35b620007ca60048036036020811015620007b357600080fd5b810190808035906020019092919050505062001fc9565b005b6200082560048036036060811015620007e457600080fd5b8101908080359060200190929190803573ffffffffffffffffffffffffffffffffffffffff1690602001909291908035906020019092919050505062002114565b604051808381526020018273ffffffffffffffffffffffffffffffffffffffff1673ffffffffffffffffffffffffffffffffffffffff1681526020019250505060405180910390f35b620008b3600480360360208110156200088657600080fd5b81019080803573ffffffffffffffffffffffffffffffffffffffff16906020019092919050505062002196565b604051808473ffffffffffffffffffffffffffffffffffffffff1673ffffffffffffffffffffffffffffffffffffffff16815260200183815260200180602001828103825283818151815260200191508051906020019060200280838360005b838110156200093057808201518184015260208101905062000913565b5050505090500194505050505060405180910390f35b62000975600480360360208110156200095e57600080fd5b8101908080359060200190929190505050620023b7565b604051808273ffffffffffffffffffffffffffffffffffffffff1673ffffffffffffffffffffffffffffffffffffffff16815260200191505060405180910390f35b620009e660048036036020811015620009cf57600080fd5b8101908080359060200190929190505050620023ea565b6040518082815260200191505060405180910390f35b62000a356004803603604081101562000a1457600080fd5b81019080803590602001909291908035906020019092919050505062002402565b604051808215151515815260200191505060405180910390f35b62000aba6004803603604081101562000a6757600080fd5b8101908080356fffffffffffffffffffffffffffffffff1916906020019092919080357bffffffffffffffffffffffffffffffffffffffffffffffffffffffff191690602001909291905050506200246b565b6040518082815260200191505060405180910390f35b62000b096004803603604081101562000ae857600080fd5b8101908080359060200190929190803590602001909291905050506200256e565b005b62000b15620025e4565b6040518082815260200191505060405180910390f35b8060008082815260200190815260200160002060009054906101000a900473ffffffffffffffffffffffffffffffffffffffff1673ffffffffffffffffffffffffffffffffffffffff1663169674076040518163ffffffff1660e01b815260040160206040518083038186803b15801562000ba557600080fd5b505afa15801562000bba573d6000803e3d6000fd5b505050506040513d602081101562000bd157600080fd5b810190808051906020019092919050505073ffffffffffffffffffffffffffffffffffffffff163373ffffffffffffffffffffffffffffffffffffffff161462000c67576040517f08c379a000000000000000000000000000000000000000000000000000000000815260040180806020018281038252602b81526020018062004e55602b913960400191505060405180910390fd5b60036000838152602001908152602001600020600090555050565b600080606062000c923362002196565b925092509250909192565b60008060008060008086600073ffffffffffffffffffffffffffffffffffffffff1660008083815260200190815260200160002060009054906101000a900473ffffffffffffffffffffffffffffffffffffffff1673ffffffffffffffffffffffffffffffffffffffff16141562000d61576040517f08c379a000000000000000000000000000000000000000000000000000000000815260040180806020018281038252602781526020018062004ebb6027913960400191505060405180910390fd5b600073ffffffffffffffffffffffffffffffffffffffff1660008083815260200190815260200160002060009054906101000a900473ffffffffffffffffffffffffffffffffffffffff1673ffffffffffffffffffffffffffffffffffffffff1663169674076040518163ffffffff1660e01b815260040160206040518083038186803b15801562000df257600080fd5b505afa15801562000e07573d6000803e3d6000fd5b505050506040513d602081101562000e1e57600080fd5b810190808051906020019092919050505073ffffffffffffffffffffffffffffffffffffffff16141562000e9e576040517f08c379a000000000000000000000000000000000000000000000000000000000815260040180806020018281038252602781526020018062004ebb6027913960400191505060405180910390fd5b876000808a815260200190815260200160002060009054906101000a900473ffffffffffffffffffffffffffffffffffffffff166000808b815260200190815260200160002060009054906101000a900473ffffffffffffffffffffffffffffffffffffffff1673ffffffffffffffffffffffffffffffffffffffff166317d7de7c6040518163ffffffff1660e01b815260040160206040518083038186803b15801562000f4b57600080fd5b505afa15801562000f60573d6000803e3d6000fd5b505050506040513d602081101562000f7757600080fd5b81019080805190602001909291905050506000808c815260200190815260200160002060009054906101000a900473ffffffffffffffffffffffffffffffffffffffff1673ffffffffffffffffffffffffffffffffffffffff1663776ce6a16040518163ffffffff1660e01b815260040160206040518083038186803b1580156200100157600080fd5b505afa15801562001016573d6000803e3d6000fd5b505050506040513d60208110156200102d57600080fd5b81019080805190602001909291905050506000808d815260200190815260200160002060009054906101000a900473ffffffffffffffffffffffffffffffffffffffff1673ffffffffffffffffffffffffffffffffffffffff1663169674076040518163ffffffff1660e01b815260040160206040518083038186803b158015620010b757600080fd5b505afa158015620010cc573d6000803e3d6000fd5b505050506040513d6020811015620010e357600080fd5b81019080805190602001909291905050506000808e815260200190815260200160002060009054906101000a900473ffffffffffffffffffffffffffffffffffffffff1673ffffffffffffffffffffffffffffffffffffffff1663f18ad6fb6040518163ffffffff1660e01b815260040160206040518083038186803b1580156200116d57600080fd5b505afa15801562001182573d6000803e3d6000fd5b505050506040513d60208110156200119957600080fd5b81019080805190602001909291905050509650965096509650965096505091939550919395565b8160008082815260200190815260200160002060009054906101000a900473ffffffffffffffffffffffffffffffffffffffff1673ffffffffffffffffffffffffffffffffffffffff1663169674076040518163ffffffff1660e01b815260040160206040518083038186803b1580156200123a57600080fd5b505afa1580156200124f573d6000803e3d6000fd5b505050506040513d60208110156200126657600080fd5b810190808051906020019092919050505073ffffffffffffffffffffffffffffffffffffffff163373ffffffffffffffffffffffffffffffffffffffff1614620012fc576040517f08c379a000000000000000000000000000000000000000000000000000000000815260040180806020018281038252602b81526020018062004e55602b913960400191505060405180910390fd5b8160405160200180828152602001915050604051602081830303815290604052805190602001206003600085815260200190815260200160002081905550505050565b60045481565b6000808360008082815260200190815260200160002060009054906101000a900473ffffffffffffffffffffffffffffffffffffffff1673ffffffffffffffffffffffffffffffffffffffff1663169674076040518163ffffffff1660e01b815260040160206040518083038186803b158015620013c257600080fd5b505afa158015620013d7573d6000803e3d6000fd5b505050506040513d6020811015620013ee57600080fd5b810190808051906020019092919050505073ffffffffffffffffffffffffffffffffffffffff163373ffffffffffffffffffffffffffffffffffffffff161462001484576040517f08c379a000000000000000000000000000000000000000000000000000000000815260040180806020018281038252602b81526020018062004e55602b913960400191505060405180910390fd5b620014908585620025ee565b92509250509250929050565b6000808483620014ad828262002402565b62001504576040517f08c379a000000000000000000000000000000000000000000000000000000000815260040180806020018281038252603681526020018062004f226036913960400191505060405180910390fd5b620015108787620025ee565b935093505050935093915050565b60016020528060005260406000206000915090508060000160009054906101000a900473ffffffffffffffffffffffffffffffffffffffff16908060020154905082565b600080606083600073ffffffffffffffffffffffffffffffffffffffff1660008083815260200190815260200160002060009054906101000a900473ffffffffffffffffffffffffffffffffffffffff1673ffffffffffffffffffffffffffffffffffffffff16141562001622576040517f08c379a000000000000000000000000000000000000000000000000000000000815260040180806020018281038252602781526020018062004ebb6027913960400191505060405180910390fd5b600073ffffffffffffffffffffffffffffffffffffffff1660008083815260200190815260200160002060009054906101000a900473ffffffffffffffffffffffffffffffffffffffff1673ffffffffffffffffffffffffffffffffffffffff1663169674076040518163ffffffff1660e01b815260040160206040518083038186803b158015620016b357600080fd5b505afa158015620016c8573d6000803e3d6000fd5b505050506040513d6020811015620016df57600080fd5b810190808051906020019092919050505073ffffffffffffffffffffffffffffffffffffffff1614156200175f576040517f08c379a000000000000000000000000000000000000000000000000000000000815260040180806020018281038252602781526020018062004ebb6027913960400191505060405180910390fd5b600080600087815260200190815260200160002060009054906101000a900473ffffffffffffffffffffffffffffffffffffffff1673ffffffffffffffffffffffffffffffffffffffff1663169674076040518163ffffffff1660e01b815260040160206040518083038186803b158015620017da57600080fd5b505afa158015620017ef573d6000803e3d6000fd5b505050506040513d60208110156200180657600080fd5b81019080805190602001909291905050509050620018248162002196565b94509450945050509193909250565b6000808383600073__SmartNameLibrary______________________63d59b2e7084846040518363ffffffff1660e01b815260040180836fffffffffffffffffffffffffffffffff19166fffffffffffffffffffffffffffffffff19168152602001827bffffffffffffffffffffffffffffffffffffffffffffffffffffffff19167bffffffffffffffffffffffffffffffffffffffffffffffffffffffff191681526020019250505060206040518083038186803b158015620018f657600080fd5b505af41580156200190b573d6000803e3d6000fd5b505050506040513d60208110156200192257600080fd5b81019080805190602001909291905050509050600073ffffffffffffffffffffffffffffffffffffffff1660008083815260200190815260200160002060009054906101000a900473ffffffffffffffffffffffffffffffffffffffff1673ffffffffffffffffffffffffffffffffffffffff16148062001a845750600073ffffffffffffffffffffffffffffffffffffffff1660008083815260200190815260200160002060009054906101000a900473ffffffffffffffffffffffffffffffffffffffff1673ffffffffffffffffffffffffffffffffffffffff1663169674076040518163ffffffff1660e01b815260040160206040518083038186803b15801562001a2f57600080fd5b505afa15801562001a44573d6000803e3d6000fd5b505050506040513d602081101562001a5b57600080fd5b810190808051906020019092919050505073ffffffffffffffffffffffffffffffffffffffff16145b62001adb576040517f08c379a000000000000000000000000000000000000000000000000000000000815260040180806020018281038252602781526020018062004ebb6027913960400191505060405180910390fd5b600073__SmartNameLibrary______________________63d59b2e7089896040518363ffffffff1660e01b815260040180836fffffffffffffffffffffffffffffffff19166fffffffffffffffffffffffffffffffff19168152602001827bffffffffffffffffffffffffffffffffffffffffffffffffffffffff19167bffffffffffffffffffffffffffffffffffffffffffffffffffffffff191681526020019250505060206040518083038186803b15801562001b9957600080fd5b505af415801562001bae573d6000803e3d6000fd5b505050506040513d602081101562001bc557600080fd5b8101908080519060200190929190505050905062001be581898962002acd565b60046000815480929190600101919050555033600160003373ffffffffffffffffffffffffffffffffffffffff1673ffffffffffffffffffffffffffffffffffffffff16815260200190815260200160002060000160006101000a81548173ffffffffffffffffffffffffffffffffffffffff021916908373ffffffffffffffffffffffffffffffffffffffff160217905550600160003373ffffffffffffffffffffffffffffffffffffffff1673ffffffffffffffffffffffffffffffffffffffff168152602001908152602001600020600101819080600181540180825580915050906001820390600052602060002001600090919290919091505550600160003373ffffffffffffffffffffffffffffffffffffffff1673ffffffffffffffffffffffffffffffffffffffff1681526020019081526020016000206002016000815480929190600101919050555060018060003373ffffffffffffffffffffffffffffffffffffffff1673ffffffffffffffffffffffffffffffffffffffff168152602001908152602001600020600201540360026000838152602001908152602001600020819055507fadd00203df97b2a8dc4f8f96cfdec210918d80ec01826e2ae2b24b08e6cfe8e88160008084815260200190815260200160002060009054906101000a900473ffffffffffffffffffffffffffffffffffffffff16604051808381526020018273ffffffffffffffffffffffffffffffffffffffff1673ffffffffffffffffffffffffffffffffffffffff1681526020019250505060405180910390a18060008083815260200190815260200160002060009054906101000a900473ffffffffffffffffffffffffffffffffffffffff1695509550505050509250929050565b6000808360008082815260200190815260200160002060009054906101000a900473ffffffffffffffffffffffffffffffffffffffff1673ffffffffffffffffffffffffffffffffffffffff1663169674076040518163ffffffff1660e01b815260040160206040518083038186803b15801562001eef57600080fd5b505afa15801562001f04573d6000803e3d6000fd5b505050506040513d602081101562001f1b57600080fd5b810190808051906020019092919050505073ffffffffffffffffffffffffffffffffffffffff163373ffffffffffffffffffffffffffffffffffffffff161462001fb1576040517f08c379a000000000000000000000000000000000000000000000000000000000815260040180806020018281038252602b81526020018062004e55602b913960400191505060405180910390fd5b62001fbd858562002e3a565b92509250509250929050565b8060008082815260200190815260200160002060009054906101000a900473ffffffffffffffffffffffffffffffffffffffff1673ffffffffffffffffffffffffffffffffffffffff1663169674076040518163ffffffff1660e01b815260040160206040518083038186803b1580156200204357600080fd5b505afa15801562002058573d6000803e3d6000fd5b505050506040513d60208110156200206f57600080fd5b810190808051906020019092919050505073ffffffffffffffffffffffffffffffffffffffff163373ffffffffffffffffffffffffffffffffffffffff161462002105576040517f08c379a000000000000000000000000000000000000000000000000000000000815260040180806020018281038252602b81526020018062004e55602b913960400191505060405180910390fd5b62002110826200372e565b5050565b600080848362002125828262002402565b6200217c576040517f08c379a000000000000000000000000000000000000000000000000000000000815260040180806020018281038252603681526020018062004f226036913960400191505060405180910390fd5b62002188878762002e3a565b935093505050935093915050565b600080606083600073ffffffffffffffffffffffffffffffffffffffff16600160008373ffffffffffffffffffffffffffffffffffffffff1673ffffffffffffffffffffffffffffffffffffffff16815260200190815260200160002060000160009054906101000a900473ffffffffffffffffffffffffffffffffffffffff1673ffffffffffffffffffffffffffffffffffffffff16141562002286576040517f08c379a000000000000000000000000000000000000000000000000000000000815260040180806020018281038252602b81526020018062004f58602b913960400191505060405180910390fd5b6200229062003dc9565b600160008773ffffffffffffffffffffffffffffffffffffffff1673ffffffffffffffffffffffffffffffffffffffff1681526020019081526020016000206040518060600160405290816000820160009054906101000a900473ffffffffffffffffffffffffffffffffffffffff1673ffffffffffffffffffffffffffffffffffffffff1673ffffffffffffffffffffffffffffffffffffffff168152602001600182018054806020026020016040519081016040528092919081815260200182805480156200238157602002820191906000526020600020905b8154815260200190600101908083116200236c575b50505050508152602001600282015481525050905080600001518160400151826020015180905094509450945050509193909250565b60006020528060005260406000206000915054906101000a900473ffffffffffffffffffffffffffffffffffffffff1681565b60026020528060005260406000206000915090505481565b600060036000848152602001908152602001600020548260405160200180828152602001915050604051602081830303815290604052805190602001201480156200246357506000801b600360008581526020019081526020016000205414155b905092915050565b600073__SmartNameLibrary______________________63d59b2e7084846040518363ffffffff1660e01b815260040180836fffffffffffffffffffffffffffffffff19166fffffffffffffffffffffffffffffffff19168152602001827bffffffffffffffffffffffffffffffffffffffffffffffffffffffff19167bffffffffffffffffffffffffffffffffffffffffffffffffffffffff191681526020019250505060206040518083038186803b1580156200252957600080fd5b505af41580156200253e573d6000803e3d6000fd5b505050506040513d60208110156200255557600080fd5b8101908080519060200190929190505050905092915050565b81816200257c828262002402565b620025d3576040517f08c379a000000000000000000000000000000000000000000000000000000000815260040180806020018281038252603681526020018062004f226036913960400191505060405180910390fd5b620025de846200372e565b50505050565b6000600454905090565b60008083600073ffffffffffffffffffffffffffffffffffffffff1660008083815260200190815260200160002060009054906101000a900473ffffffffffffffffffffffffffffffffffffffff1673ffffffffffffffffffffffffffffffffffffffff161415620026ac576040517f08c379a000000000000000000000000000000000000000000000000000000000815260040180806020018281038252602781526020018062004ebb6027913960400191505060405180910390fd5b600073ffffffffffffffffffffffffffffffffffffffff1660008083815260200190815260200160002060009054906101000a900473ffffffffffffffffffffffffffffffffffffffff1673ffffffffffffffffffffffffffffffffffffffff1663169674076040518163ffffffff1660e01b815260040160206040518083038186803b1580156200273d57600080fd5b505afa15801562002752573d6000803e3d6000fd5b505050506040513d60208110156200276957600080fd5b810190808051906020019092919050505073ffffffffffffffffffffffffffffffffffffffff161415620027e9576040517f08c379a000000000000000000000000000000000000000000000000000000000815260040180806020018281038252602781526020018062004ebb6027913960400191505060405180910390fd5b8373ffffffffffffffffffffffffffffffffffffffff1660008087815260200190815260200160002060009054906101000a900473ffffffffffffffffffffffffffffffffffffffff1673ffffffffffffffffffffffffffffffffffffffff1663f18ad6fb6040518163ffffffff1660e01b815260040160206040518083038186803b1580156200287957600080fd5b505afa1580156200288e573d6000803e3d6000fd5b505050506040513d6020811015620028a557600080fd5b810190808051906020019092919050505073ffffffffffffffffffffffffffffffffffffffff16141562002925576040517f08c379a000000000000000000000000000000000000000000000000000000000815260040180806020018281038252603b81526020018062004e80603b913960400191505060405180910390fd5b60008086815260200190815260200160002060009054906101000a900473ffffffffffffffffffffffffffffffffffffffff1673ffffffffffffffffffffffffffffffffffffffff1663c37787d9856040518263ffffffff1660e01b8152600401808273ffffffffffffffffffffffffffffffffffffffff1673ffffffffffffffffffffffffffffffffffffffff168152602001915050600060405180830381600087803b158015620029d757600080fd5b505af1158015620029ec573d6000803e3d6000fd5b505050507f4af9da156424d3007e6186ee5c256531d72747794d5037668a44dee832c9f5d58560008088815260200190815260200160002060009054906101000a900473ffffffffffffffffffffffffffffffffffffffff16604051808381526020018273ffffffffffffffffffffffffffffffffffffffff1673ffffffffffffffffffffffffffffffffffffffff1681526020019250505060405180910390a18460008087815260200190815260200160002060009054906101000a900473ffffffffffffffffffffffffffffffffffffffff1692509250509250929050565b600073ffffffffffffffffffffffffffffffffffffffff1660008085815260200190815260200160002060009054906101000a900473ffffffffffffffffffffffffffffffffffffffff1673ffffffffffffffffffffffffffffffffffffffff16141562002c9e57828282333360405162002b489062003e00565b80868152602001856fffffffffffffffffffffffffffffffff19166fffffffffffffffffffffffffffffffff19168152602001847bffffffffffffffffffffffffffffffffffffffffffffffffffffffff19167bffffffffffffffffffffffffffffffffffffffffffffffffffffffff191681526020018373ffffffffffffffffffffffffffffffffffffffff1673ffffffffffffffffffffffffffffffffffffffff1681526020018273ffffffffffffffffffffffffffffffffffffffff1673ffffffffffffffffffffffffffffffffffffffff16815260200195505050505050604051809103906000f08015801562002c47573d6000803e3d6000fd5b5060008085815260200190815260200160002060006101000a81548173ffffffffffffffffffffffffffffffffffffffff021916908373ffffffffffffffffffffffffffffffffffffffff16021790555062002e35565b60008084815260200190815260200160002060009054906101000a900473ffffffffffffffffffffffffffffffffffffffff1673ffffffffffffffffffffffffffffffffffffffff1663df8089ef336040518263ffffffff1660e01b8152600401808273ffffffffffffffffffffffffffffffffffffffff1673ffffffffffffffffffffffffffffffffffffffff168152602001915050600060405180830381600087803b15801562002d5057600080fd5b505af115801562002d65573d6000803e3d6000fd5b5050505060008084815260200190815260200160002060009054906101000a900473ffffffffffffffffffffffffffffffffffffffff1673ffffffffffffffffffffffffffffffffffffffff1663c37787d9336040518263ffffffff1660e01b8152600401808273ffffffffffffffffffffffffffffffffffffffff1673ffffffffffffffffffffffffffffffffffffffff168152602001915050600060405180830381600087803b15801562002e1b57600080fd5b505af115801562002e30573d6000803e3d6000fd5b505050505b505050565b60008083600073ffffffffffffffffffffffffffffffffffffffff1660008083815260200190815260200160002060009054906101000a900473ffffffffffffffffffffffffffffffffffffffff1673ffffffffffffffffffffffffffffffffffffffff16141562002ef8576040517f08c379a000000000000000000000000000000000000000000000000000000000815260040180806020018281038252602781526020018062004ebb6027913960400191505060405180910390fd5b600073ffffffffffffffffffffffffffffffffffffffff1660008083815260200190815260200160002060009054906101000a900473ffffffffffffffffffffffffffffffffffffffff1673ffffffffffffffffffffffffffffffffffffffff1663169674076040518163ffffffff1660e01b815260040160206040518083038186803b15801562002f8957600080fd5b505afa15801562002f9e573d6000803e3d6000fd5b505050506040513d602081101562002fb557600080fd5b810190808051906020019092919050505073ffffffffffffffffffffffffffffffffffffffff16141562003035576040517f08c379a000000000000000000000000000000000000000000000000000000000815260040180806020018281038252602781526020018062004ebb6027913960400191505060405180910390fd5b600080600087815260200190815260200160002060009054906101000a900473ffffffffffffffffffffffffffffffffffffffff1673ffffffffffffffffffffffffffffffffffffffff1663169674076040518163ffffffff1660e01b815260040160206040518083038186803b158015620030b057600080fd5b505afa158015620030c5573d6000803e3d6000fd5b505050506040513d6020811015620030dc57600080fd5b810190808051906020019092919050505090508473ffffffffffffffffffffffffffffffffffffffff168173ffffffffffffffffffffffffffffffffffffffff16141562003176576040517f08c379a000000000000000000000000000000000000000000000000000000000815260040180806020018281038252604081526020018062004ee26040913960400191505060405180910390fd5b600160008273ffffffffffffffffffffffffffffffffffffffff1673ffffffffffffffffffffffffffffffffffffffff1681526020019081526020016000206002016000815480929190600190039190505550600160008273ffffffffffffffffffffffffffffffffffffffff1673ffffffffffffffffffffffffffffffffffffffff1681526020019081526020016000206001016002600088815260200190815260200160002054815481106200322a57fe5b90600052602060002001600090556000600160008373ffffffffffffffffffffffffffffffffffffffff1673ffffffffffffffffffffffffffffffffffffffff1681526020019081526020016000206002015414156200330857600160008273ffffffffffffffffffffffffffffffffffffffff1673ffffffffffffffffffffffffffffffffffffffff168152602001908152602001600020600080820160006101000a81549073ffffffffffffffffffffffffffffffffffffffff0219169055600182016000620032fd919062003e0e565b600282016000905550505b84600160008773ffffffffffffffffffffffffffffffffffffffff1673ffffffffffffffffffffffffffffffffffffffff16815260200190815260200160002060000160006101000a81548173ffffffffffffffffffffffffffffffffffffffff021916908373ffffffffffffffffffffffffffffffffffffffff160217905550600160008673ffffffffffffffffffffffffffffffffffffffff1673ffffffffffffffffffffffffffffffffffffffff168152602001908152602001600020600101869080600181540180825580915050906001820390600052602060002001600090919290919091505550600160008673ffffffffffffffffffffffffffffffffffffffff1673ffffffffffffffffffffffffffffffffffffffff1681526020019081526020016000206002016000815480929190600101919050555060008087815260200190815260200160002060009054906101000a900473ffffffffffffffffffffffffffffffffffffffff1673ffffffffffffffffffffffffffffffffffffffff1663df8089ef866040518263ffffffff1660e01b8152600401808273ffffffffffffffffffffffffffffffffffffffff1673ffffffffffffffffffffffffffffffffffffffff168152602001915050600060405180830381600087803b158015620034f957600080fd5b505af11580156200350e573d6000803e3d6000fd5b5050505060008087815260200190815260200160002060009054906101000a900473ffffffffffffffffffffffffffffffffffffffff1673ffffffffffffffffffffffffffffffffffffffff1663c37787d9866040518263ffffffff1660e01b8152600401808273ffffffffffffffffffffffffffffffffffffffff1673ffffffffffffffffffffffffffffffffffffffff168152602001915050600060405180830381600087803b158015620035c457600080fd5b505af1158015620035d9573d6000803e3d6000fd5b5050505060018060008773ffffffffffffffffffffffffffffffffffffffff1673ffffffffffffffffffffffffffffffffffffffff1681526020019081526020016000206002015403600260008881526020019081526020016000208190555060036000878152602001908152602001600020600090557f596a8f5115701564eb0259c9d8587012f147442068124f6ccb62e1e363bbd6768660008089815260200190815260200160002060009054906101000a900473ffffffffffffffffffffffffffffffffffffffff16604051808381526020018273ffffffffffffffffffffffffffffffffffffffff1673ffffffffffffffffffffffffffffffffffffffff1681526020019250505060405180910390a18560008088815260200190815260200160002060009054906101000a900473ffffffffffffffffffffffffffffffffffffffff169350935050509250929050565b80600073ffffffffffffffffffffffffffffffffffffffff1660008083815260200190815260200160002060009054906101000a900473ffffffffffffffffffffffffffffffffffffffff1673ffffffffffffffffffffffffffffffffffffffff161415620037e9576040517f08c379a000000000000000000000000000000000000000000000000000000000815260040180806020018281038252602781526020018062004ebb6027913960400191505060405180910390fd5b600073ffffffffffffffffffffffffffffffffffffffff1660008083815260200190815260200160002060009054906101000a900473ffffffffffffffffffffffffffffffffffffffff1673ffffffffffffffffffffffffffffffffffffffff1663169674076040518163ffffffff1660e01b815260040160206040518083038186803b1580156200387a57600080fd5b505afa1580156200388f573d6000803e3d6000fd5b505050506040513d6020811015620038a657600080fd5b810190808051906020019092919050505073ffffffffffffffffffffffffffffffffffffffff16141562003926576040517f08c379a000000000000000000000000000000000000000000000000000000000815260040180806020018281038252602781526020018062004ebb6027913960400191505060405180910390fd5b600080600084815260200190815260200160002060009054906101000a900473ffffffffffffffffffffffffffffffffffffffff1673ffffffffffffffffffffffffffffffffffffffff1663169674076040518163ffffffff1660e01b815260040160206040518083038186803b158015620039a157600080fd5b505afa158015620039b6573d6000803e3d6000fd5b505050506040513d6020811015620039cd57600080fd5b8101908080519060200190929190505050905062003a1d60008085815260200190815260200160002060009054906101000a900473ffffffffffffffffffffffffffffffffffffffff1662003c92565b60046000815480929190600190039190505550600160008273ffffffffffffffffffffffffffffffffffffffff1673ffffffffffffffffffffffffffffffffffffffff1681526020019081526020016000206002016000815480929190600190039190505550600160008273ffffffffffffffffffffffffffffffffffffffff1673ffffffffffffffffffffffffffffffffffffffff16815260200190815260200160002060010160026000858152602001908152602001600020548154811062003ae457fe5b90600052602060002001600090556000600160008373ffffffffffffffffffffffffffffffffffffffff1673ffffffffffffffffffffffffffffffffffffffff16815260200190815260200160002060020154141562003bc257600160008273ffffffffffffffffffffffffffffffffffffffff1673ffffffffffffffffffffffffffffffffffffffff168152602001908152602001600020600080820160006101000a81549073ffffffffffffffffffffffffffffffffffffffff021916905560018201600062003bb7919062003e0e565b600282016000905550505b600260008481526020019081526020016000206000905560036000848152602001908152602001600020600090557ffea304026fe97f37c0af6cccadb8269876a20cc1c16e7d4972fc36872eb880e28360008086815260200190815260200160002060009054906101000a900473ffffffffffffffffffffffffffffffffffffffff16604051808381526020018273ffffffffffffffffffffffffffffffffffffffff1673ffffffffffffffffffffffffffffffffffffffff1681526020019250505060405180910390a1505050565b8073ffffffffffffffffffffffffffffffffffffffff1663df8089ef60006040518263ffffffff1660e01b8152600401808273ffffffffffffffffffffffffffffffffffffffff1673ffffffffffffffffffffffffffffffffffffffff168152602001915050600060405180830381600087803b15801562003d1357600080fd5b505af115801562003d28573d6000803e3d6000fd5b505050508073ffffffffffffffffffffffffffffffffffffffff1663c37787d960006040518263ffffffff1660e01b8152600401808273ffffffffffffffffffffffffffffffffffffffff1673ffffffffffffffffffffffffffffffffffffffff168152602001915050600060405180830381600087803b15801562003dad57600080fd5b505af115801562003dc2573d6000803e3d6000fd5b5050505050565b6040518060600160405280600073ffffffffffffffffffffffffffffffffffffffff16815260200160608152602001600081525090565b610ffb8062003e5a83390190565b508054600082559060005260206000209081019062003e2e919062003e31565b50565b62003e5691905b8082111562003e5257600081600090555060010162003e38565b5090565b9056fe608060405234801561001057600080fd5b50604051610ffb380380610ffb833981810160405260a081101561003357600080fd5b81019080805190602001909291908051906020019092919080519060200190929190805190602001909291908051906020019092919050505061007a6103ad60201b60201c565b6000806101000a81548173ffffffffffffffffffffffffffffffffffffffff021916908373ffffffffffffffffffffffffffffffffffffffff1602179055507f4101e71e974f68df5e9730cc223280b41654676bbb052cdcc735c3337e64d2d96000809054906101000a900473ffffffffffffffffffffffffffffffffffffffff16604051808273ffffffffffffffffffffffffffffffffffffffff1673ffffffffffffffffffffffffffffffffffffffff16815260200191505060405180910390a18383600060f81b8260006010811061015157fe5b1a60f81b7effffffffffffffffffffffffffffffffffffffffffffffffffffffffffffff191614156101eb576040517f08c379a00000000000000000000000000000000000000000000000000000000081526004018080602001828103825260188152602001807f4572726f723a20546865206e616d6520697320656d707479000000000000000081525060200191505060405180910390fd5b600060f81b816000600481106101fd57fe5b1a60f81b7effffffffffffffffffffffffffffffffffffffffffffffffffffffffffffff19161415610297576040517f08c379a000000000000000000000000000000000000000000000000000000000815260040180806020018281038252601d8152602001807f4572726f723a2054686520657874656e73696f6e20697320656d70747900000081525060200191505060405180910390fd5b8660018190555085600260006101000a8154816fffffffffffffffffffffffffffffffff021916908360801c021790555084600260106101000a81548163ffffffff021916908360e01c021790555083600360006101000a81548173ffffffffffffffffffffffffffffffffffffffff021916908373ffffffffffffffffffffffffffffffffffffffff16021790555082600460006101000a81548173ffffffffffffffffffffffffffffffffffffffff021916908373ffffffffffffffffffffffffffffffffffffffff1602179055507f23c50d3ffad941dcf92f2d6d9cf9e50449bb840d2e71bb8c040c9253e4f88e636001546040518082815260200191505060405180910390a1505050505050506103b5565b600033905090565b610c37806103c46000396000f3fe608060405234801561001057600080fd5b50600436106100f55760003560e01c8063776ce6a111610097578063cf9f23b511610066578063cf9f23b514610476578063df8089ef146104d2578063f18ad6fb14610516578063f53d0a8e14610560576100f5565b8063776ce6a11461036e578063af640d0f146103ca578063c37787d9146103e8578063c6dbdf611461042c576100f5565b80632348238c116100d35780632348238c146101cc578063266cf109146102105780635d1ca6311461025a5780636d4ce63c14610278576100f5565b806306fdde03146100fa578063169674071461013e57806317d7de7c14610188575b600080fd5b6101026105aa565b60405180826fffffffffffffffffffffffffffffffff19166fffffffffffffffffffffffffffffffff1916815260200191505060405180910390f35b6101466105bd565b604051808273ffffffffffffffffffffffffffffffffffffffff1673ffffffffffffffffffffffffffffffffffffffff16815260200191505060405180910390f35b6101906105e7565b60405180826fffffffffffffffffffffffffffffffff19166fffffffffffffffffffffffffffffffff1916815260200191505060405180910390f35b61020e600480360360208110156101e257600080fd5b81019080803573ffffffffffffffffffffffffffffffffffffffff1690602001909291905050506105fe565b005b6102186107f7565b604051808273ffffffffffffffffffffffffffffffffffffffff1673ffffffffffffffffffffffffffffffffffffffff16815260200191505060405180910390f35b61026261081d565b6040518082815260200191505060405180910390f35b610280610827565b60405180868152602001856fffffffffffffffffffffffffffffffff19166fffffffffffffffffffffffffffffffff19168152602001847bffffffffffffffffffffffffffffffffffffffffffffffffffffffff19167bffffffffffffffffffffffffffffffffffffffffffffffffffffffff191681526020018373ffffffffffffffffffffffffffffffffffffffff1673ffffffffffffffffffffffffffffffffffffffff1681526020018273ffffffffffffffffffffffffffffffffffffffff1673ffffffffffffffffffffffffffffffffffffffff1681526020019550505050505060405180910390f35b6103766108a9565b60405180827bffffffffffffffffffffffffffffffffffffffffffffffffffffffff19167bffffffffffffffffffffffffffffffffffffffffffffffffffffffff1916815260200191505060405180910390f35b6103d26108c0565b6040518082815260200191505060405180910390f35b61042a600480360360208110156103fe57600080fd5b81019080803573ffffffffffffffffffffffffffffffffffffffff1690602001909291905050506108c6565b005b6104346109ef565b604051808273ffffffffffffffffffffffffffffffffffffffff1673ffffffffffffffffffffffffffffffffffffffff16815260200191505060405180910390f35b61047e610a18565b60405180827bffffffffffffffffffffffffffffffffffffffffffffffffffffffff19167bffffffffffffffffffffffffffffffffffffffffffffffffffffffff1916815260200191505060405180910390f35b610514600480360360208110156104e857600080fd5b81019080803573ffffffffffffffffffffffffffffffffffffffff169060200190929190505050610a2b565b005b61051e610b54565b604051808273ffffffffffffffffffffffffffffffffffffffff1673ffffffffffffffffffffffffffffffffffffffff16815260200191505060405180910390f35b610568610b7e565b604051808273ffffffffffffffffffffffffffffffffffffffff1673ffffffffffffffffffffffffffffffffffffffff16815260200191505060405180910390f35b600260009054906101000a900460801b81565b6000600360009054906101000a900473ffffffffffffffffffffffffffffffffffffffff16905090565b6000600260009054906101000a900460801b905090565b6000809054906101000a900473ffffffffffffffffffffffffffffffffffffffff1673ffffffffffffffffffffffffffffffffffffffff1661063e610ba4565b73ffffffffffffffffffffffffffffffffffffffff16146106aa576040517f08c379a000000000000000000000000000000000000000000000000000000000815260040180806020018281038252602c815260200180610bd7602c913960400191505060405180910390fd5b600073ffffffffffffffffffffffffffffffffffffffff168173ffffffffffffffffffffffffffffffffffffffff161415610730576040517f08c379a000000000000000000000000000000000000000000000000000000000815260040180806020018281038252602a815260200180610bad602a913960400191505060405180910390fd5b806000806101000a81548173ffffffffffffffffffffffffffffffffffffffff021916908373ffffffffffffffffffffffffffffffffffffffff1602179055507f4101e71e974f68df5e9730cc223280b41654676bbb052cdcc735c3337e64d2d96000809054906101000a900473ffffffffffffffffffffffffffffffffffffffff16604051808273ffffffffffffffffffffffffffffffffffffffff1673ffffffffffffffffffffffffffffffffffffffff16815260200191505060405180910390a150565b600460009054906101000a900473ffffffffffffffffffffffffffffffffffffffff1681565b6000600154905090565b6000806000806000600154600260009054906101000a900460801b600260109054906101000a900460e01b600360009054906101000a900473ffffffffffffffffffffffffffffffffffffffff16600460009054906101000a900473ffffffffffffffffffffffffffffffffffffffff16945094509450945094509091929394565b6000600260109054906101000a900460e01b905090565b60015481565b6000809054906101000a900473ffffffffffffffffffffffffffffffffffffffff1673ffffffffffffffffffffffffffffffffffffffff16610906610ba4565b73ffffffffffffffffffffffffffffffffffffffff1614610972576040517f08c379a000000000000000000000000000000000000000000000000000000000815260040180806020018281038252602c815260200180610bd7602c913960400191505060405180910390fd5b80600460006101000a81548173ffffffffffffffffffffffffffffffffffffffff021916908373ffffffffffffffffffffffffffffffffffffffff1602179055507f0c286e79f399f07f3dad272c21ed81f69865eb9243194e22aaa37abb8bcf2afe6001546040518082815260200191505060405180910390a150565b60008060009054906101000a900473ffffffffffffffffffffffffffffffffffffffff16905090565b600260109054906101000a900460e01b81565b6000809054906101000a900473ffffffffffffffffffffffffffffffffffffffff1673ffffffffffffffffffffffffffffffffffffffff16610a6b610ba4565b73ffffffffffffffffffffffffffffffffffffffff1614610ad7576040517f08c379a000000000000000000000000000000000000000000000000000000000815260040180806020018281038252602c815260200180610bd7602c913960400191505060405180910390fd5b80600360006101000a81548173ffffffffffffffffffffffffffffffffffffffff021916908373ffffffffffffffffffffffffffffffffffffffff1602179055507f720ea1461daee25ec973e51ae032c8eea455e2a4b12ae09ed0ed8e2cd832e10a6001546040518082815260200191505060405180910390a150565b6000600460009054906101000a900473ffffffffffffffffffffffffffffffffffffffff16905090565b600360009054906101000a900473ffffffffffffffffffffffffffffffffffffffff1681565b60003390509056fe5365636f6e646172793a206e6577207072696d61727920697320746865207a65726f20616464726573735365636f6e646172793a2063616c6c6572206973206e6f7420746865207072696d617279206163636f756e74a265627a7a72315820ac1ac849512957cbe82e1174de1c8a34e9f3fa060697d45c791b5e4fc79d0edb64736f6c634300050c00324572726f723a204f6e6c79207468652061646d696e6973747261746f7220697320617574686f72697a65644572726f72203a2054686973207265636f726420697320616c7265616479206173736f636961746520746f207468697320736d617274206e616d654572726f723a2054686520736d617274206e616d65206973206e6f7420726567697374657265644572726f72203a2054686973206164647265737320697320616c72656164792061646d696e6973747261746f72206f66207468697320736d617274206e616d654572726f723a2054686520756e6c6f636b657220666f72207468697320736d617274206e616d65206973206e6f7420636f72726563744572726f723a20546869732061646472657373206973206e6f7420616e2061646d696e6973747261746f72a265627a7a72315820b09d1ad4c763e5eed0b38c2b44fa232813ad8cff47b1d4d9c38afcfc6ebe8afd64736f6c634300050c0032",
  "source": "pragma solidity ^0.5.0;\n\nimport \"./SmartName.sol\";\nimport \"../utils/SmartNameLibrary.sol\";\n\n/**\n * @title SmartNameRegistry\n * @author Steve Despres - @stevedespres - steve.despres@protonmail.com\n * @notice This contract represents a register of smart name. Users can register and manage smart names, with traditionnal domain name format (\"name\".\"ext\"), and associate a record to this smart name. The record is an ethereum address.\n * @dev The smart name format is composed by \"name\" (bytes16) and \"extension\" (bytes4). The smart names have id, which is a keccak256 hash avec the \"name\" and \"extension\".\n */\ncontract SmartNameRegistry{\n\n    /**\n     * @notice Mapping of id and SmartName\n     */\n    mapping (bytes32 => SmartName) public smartNames;\n\n    /**\n     * @notice Mapping of address and Administrator\n     */\n    mapping (address => Administrator) public administrators;\n\n    /**\n     * @notice Mapping of smart names ids and their index in wallet\n     */\n    mapping (bytes32 => uint) public indexes;\n\n    /**\n     * @notice Mapping of smart names ids and their unlockers\n     */\n    mapping (bytes32 => bytes32) private unlockers;\n\n    /**\n     * @notice Number of smart names registered\n     */\n    uint public nbSmartNamesTotal;\n\n    /**\n     * @notice Represents an Adminitrator of smart names\n     */\n    struct Administrator {\n        address addr;\n        bytes32[] wallet;\n        uint nbSmartNames;\n    }\n\n    /**\n     * @notice Log when a smart name is registered\n     * @param id id of the smart name\n     * @param smartName SmartName contract\n     */\n    event LogForRegisterByRegistry(bytes32 id, SmartName smartName);\n\n    /**\n     * @notice Log when the administrator of a smart name is updated\n     * @param id id of the smart name\n     * @param smartName SmartName contract\n     */\n    event LogForAdministratorUpdateByRegistry(bytes32 id, SmartName smartName);\n\n    /**\n     * @notice Log when the record of a smart name is updated\n     * @param id id of the smart name\n     * @param smartName SmartName contract\n     */\n    event LogForRecordUpdateByRegistry(bytes32 id, SmartName smartName);\n\n    /**\n     * @notice Log when a smart name is abandoned\n     * @param id id of the smart name\n     * @param smartName SmartName contract\n     */\n    event LogForAbandonByRegistry(bytes32 id, SmartName smartName);\n\n    /**\n     * @notice Modifier to verify that the caller is the administrator of the smart name\n     * @param _id id of the smart name\n     */\n    modifier isAdminOf(bytes32 _id)\n    {\n        require(msg.sender == smartNames[_id].getAdministrator(), \"Error: Only the administrator is authorized\");\n        _;\n    }\n\n    /**\n     * @notice Modifier to verify the unlocker of the smart name\n     * @param _id id of the smart name\n     * @param _unlocker id of the smart name\n     */\n    modifier isUnlockerOf(bytes32 _id, bytes32 _unlocker)\n    {\n        require(isUnlocker(_id, _unlocker), \"Error: The unlocker for this smart name is not correct\");\n        _;\n    }\n\n    /**\n     * @notice Modifier to verify that the adress is an administrator\n     * @param _address address\n     */\n    modifier isAdmin(address _address)\n    {\n        require(administrators[_address].addr != address(0x0), \"Error: This address is not an administrator\");\n        _;\n    }\n\n    /**\n     * @notice Modifier to verify that the smart name is registered\n     * @param _id id of the smart name\n     */\n    modifier isRegistered(bytes32 _id)\n    {\n        require(smartNames[_id] != SmartName(0x0), \"Error: The smart name is not registered\");\n        require(smartNames[_id].getAdministrator() != address(0x0), \"Error: The smart name is not registered\");\n        _;\n    }\n\n    /**\n     * @notice Modifier to verify that the smart name is not registered\n     * @param _name name\n     * @param _ext extension\n     */\n    modifier isNotRegistered(bytes16 _name, bytes4 _ext)\n    {\n        bytes32 id = SmartNameLibrary.getIdOf(_name, _ext);\n        require((smartNames[id] == SmartName(0x0) || smartNames[id].getAdministrator() == address(0x0)),\n        \"Error: The smart name is not registered\");\n\n        _;\n    }\n\n    /**\n     * @notice Register a smart name\n     * @param _name name\n     * @param _ext extension\n     * @return Id and SmartName contract\n     */\n    function register(bytes16 _name, bytes4 _ext) public\n        isNotRegistered(_name, _ext) returns(bytes32, SmartName)\n    {\n        bytes32 id = SmartNameLibrary.getIdOf(_name, _ext);\n\n        // Create smart name\n        registerSmartName(id, _name, _ext);\n        nbSmartNamesTotal++;\n\n        // Update Administrator\n        administrators[msg.sender].addr = msg.sender;\n        administrators[msg.sender].wallet.push(id);\n        administrators[msg.sender].nbSmartNames++;\n\n        // Update index in the wallet\n        indexes[id] = administrators[msg.sender].nbSmartNames-1;\n\n        emit LogForRegisterByRegistry(id, smartNames[id]);\n        return (id, smartNames[id]);\n    }\n\n\n    /**\n     * @notice Abandon a smart name\n     * @param _id id of the smart name\n     */\n    function abandon(bytes32 _id) public\n        isAdminOf(_id)\n    {\n        return abandonSmartName(_id);\n    }\n\n    /**\n     * @notice Abandon a smart name with Unlocker\n     * @param _id id of the smart name\n     * @param _unlocker unlocker of the smart name\n     */\n    function abandonWithUnlocker(bytes32 _id, bytes32 _unlocker) public\n        isUnlockerOf(_id, _unlocker)\n    {\n        return abandonSmartName(_id);\n    }\n\n    /**\n     * @notice Abandon a smart name\n     * @param _id id of the smart name\n     */\n    function abandonSmartName(bytes32 _id) private\n        isRegistered(_id)\n    {\n        address administrator = smartNames[_id].getAdministrator();\n\n        // Delete smart name\n        abandonSmartName(smartNames[_id]);\n        nbSmartNamesTotal--;\n\n        // Update Administrator\n        administrators[administrator].nbSmartNames--;\n        delete administrators[administrator].wallet[indexes[_id]];\n        if(administrators[administrator].nbSmartNames == 0) {\n            delete administrators[administrator];\n        }\n\n        // Update index in the wallet\n        delete indexes[_id];\n\n        // Delete unlocker\n        delete unlockers[_id];\n\n        emit LogForAbandonByRegistry(_id, smartNames[_id]);\n    }\n\n    /**\n     * @notice Modifiy the administrator of a smart name\n     * @param _id id of the smart name\n     * @param _newAdministrator new administrator\n     * @return Id and SmartName contract\n     */\n    function modifyAdministrator(bytes32 _id, address _newAdministrator) public\n        isAdminOf(_id) returns(bytes32, SmartName)\n    {\n        return modifyAdministratorOfSmartName(_id, _newAdministrator);\n    }\n\n    /**\n     * @notice Modifiy the administrator of a smart name with Unlocker\n     * @param _id id of the smart name\n     * @param _newAdministrator new administrator\n     * @param _unlocker unlocker of the smart name\n     * @return Id and SmartName contract\n     */\n    function modifyAdministratorWithUnlocker(bytes32 _id, address _newAdministrator, bytes32 _unlocker) public\n        isUnlockerOf(_id, _unlocker) returns(bytes32, SmartName)\n    {\n        return modifyAdministratorOfSmartName(_id, _newAdministrator);\n    }\n\n   /**\n     * @notice Modify the administrator of a smart name\n     * @param _id id of the smart name\n     * @param _newAdministrator new administrator\n     * @return Id and SmartName contract\n     */\n    function modifyAdministratorOfSmartName(bytes32 _id, address _newAdministrator) private\n        isRegistered(_id) returns(bytes32, SmartName)\n    {\n        address oldAdministrator = smartNames[_id].getAdministrator();\n        require(oldAdministrator != _newAdministrator, \"Error : This address is already administrator of this smart name\");\n\n        // Update old administrator\n        administrators[oldAdministrator].nbSmartNames--;\n        delete administrators[oldAdministrator].wallet[indexes[_id]];\n        if(administrators[oldAdministrator].nbSmartNames==0){\n            delete administrators[oldAdministrator];\n        }\n\n        // Update new Administrator\n        administrators[_newAdministrator].addr = _newAdministrator;\n        administrators[_newAdministrator].wallet.push(_id);\n        administrators[_newAdministrator].nbSmartNames++;\n\n        // Update smart name\n        smartNames[_id].setAdministrator(_newAdministrator);\n        smartNames[_id].setRecord(_newAdministrator);\n\n        // Update index in the wallet\n        indexes[_id] = administrators[_newAdministrator].nbSmartNames-1;\n\n        // Delete unlocker\n        delete unlockers[_id];\n\n        emit LogForAdministratorUpdateByRegistry(_id, smartNames[_id]);\n        return (_id, smartNames[_id]);\n    }\n\n    /**\n     * @notice Modify the record of a smart name\n     * @param _id id of the smart name\n     * @param _newRecord new record\n     * @return SmartNameContract\n     */\n    function modifyRecord(bytes32 _id, address _newRecord) public\n        isAdminOf(_id) returns (bytes32, SmartName)\n    {\n        return modifyRecordOfSmartName(_id, _newRecord);\n    }\n\n    /**\n     * @notice Modify the record of a smart name with unlocker\n     * @param _id id of the smart name\n     * @param _newRecord new record\n     * @param _unlocker unlocker of the smart name\n     * @return SmartNameContract\n     */\n    function modifyRecordWithUnlocker(bytes32 _id, address _newRecord, bytes32 _unlocker) public\n        isUnlockerOf(_id, _unlocker) returns (bytes32, SmartName)\n    {\n        return modifyRecordOfSmartName(_id, _newRecord);\n    }\n\n    /**\n     * @notice Modify the record of a smart name\n     * @param _id id of the smart name\n     * @param _newRecord new record\n     * @return SmartNameContract\n     */\n    function modifyRecordOfSmartName(bytes32 _id, address _newRecord) private\n        isRegistered(_id) returns (bytes32, SmartName)\n    {\n        require(smartNames[_id].getRecord() != _newRecord, \"Error : This record is already associate to this smart name\");\n\n        // Update record\n        smartNames[_id].setRecord(_newRecord);\n\n        emit LogForRecordUpdateByRegistry(_id, smartNames[_id]);\n        return (_id, smartNames[_id]);\n    }\n\n    /**\n     * @notice Set an unlocker for a smart name. An unlocker is a code that permit to manage a domain name not being the administrator.\n     * @param _id id of the smart name\n     * @param _unlocker unlocker of the smart name\n     */\n    function setUnlocker(bytes32 _id, bytes32 _unlocker) public\n        isAdminOf(_id)\n    {\n        unlockers[_id] = keccak256(abi.encodePacked(_unlocker));\n    }\n\n    /**\n     * @notice Remove the unlocker of a smart name\n     * @param _id id of the smart name\n     */\n    function removeUnlocker(bytes32 _id) public\n        isAdminOf(_id)\n    {\n        delete unlockers[_id];\n    }\n\n    /**\n     * @notice Register the smart name. The administrator and the record of the smart name are set up.\n     * @param _id id\n     * @param _unlocker unlocker\n     */\n    function isUnlocker(bytes32 _id, bytes32 _unlocker) public view\n        returns (bool)\n    {\n        return (keccak256(abi.encodePacked(_unlocker)) == unlockers[_id]) && (unlockers[_id] != bytes32(0x0));\n    }\n\n    /**\n     * @notice Get smart name by id\n     * @param _id id of a smart name\n     * @return Id, SmartNameContract, name, extension, administrator, record\n     */\n    function getSmartName(bytes32 _id) public view\n        isRegistered(_id) returns (bytes32, SmartName, bytes16, bytes4, address, address)\n    {\n        return (\n            _id,\n            smartNames[_id],\n            smartNames[_id].getName(),\n            smartNames[_id].getExtension(),\n            smartNames[_id].getAdministrator(),\n            smartNames[_id].getRecord()\n        );\n    }\n\n    /**\n     * @notice Get Administrator from the caller\n     * @return address, number of smart names, wallet\n     */\n    function getAdministrator() public view\n        returns (address, uint, bytes32[] memory)\n    {\n        return getAdministratorByAddress(msg.sender);\n    }\n\n    /**\n     * @notice Get Administrator of a smart name\n     * @param _id id of a smart name\n     * @return address, number of smart names, wallet\n     */\n    function getAdministratorOf(bytes32 _id) public view\n        isRegistered(_id) returns (address, uint, bytes32[] memory)\n    {\n        address adminAddress = smartNames[_id].getAdministrator();\n        return getAdministratorByAddress(adminAddress);\n    }\n\n    /**\n     * @notice Get Administrator by Address\n     * @param _address address\n     * @return address, number of smart names, wallet\n     */\n    function getAdministratorByAddress(address _address) public view\n        isAdmin(_address) returns (address, uint, bytes32[] memory)\n    {\n        Administrator memory admin = administrators[_address];\n        return(admin.addr, admin.nbSmartNames, admin.wallet);\n    }\n\n    /**\n     * @notice Get number of smart names\n     * @return number of smart names\n     */\n    function getNbSmartNamesTotal() public view\n        returns (uint)\n    {\n        return nbSmartNamesTotal;\n    }\n\n    /**\n     * @notice Get id by name and extension\n     * @param _name name\n     * @param _ext extension\n     * @return id\n     */\n    function getIdOf(bytes16 _name, bytes4 _ext) public pure\n        returns (bytes32)\n    {\n        return SmartNameLibrary.getIdOf(_name, _ext);\n    }\n\n    /**\n     * @notice Abandon the smart name. The contract is not deleted but the administrator and the record are reset to address(0x0)\n     * @param smartName SmartName contract\n     */\n    function abandonSmartName(SmartName smartName) private\n    {\n        smartName.setAdministrator(address(0x0));\n        smartName.setRecord(address(0x0));\n    }\n\n    /**\n     * @notice Register the smart name. The administrator and the record of the smart name are set up.\n     * @param _id id\n     * @param _name name\n     * @param _ext extension\n     */\n    function registerSmartName(bytes32 _id, bytes16 _name, bytes4 _ext) private\n    {\n        if(smartNames[_id] == SmartName(0x0)) {\n            smartNames[_id] = new SmartName(_id, _name, _ext, msg.sender, msg.sender);\n        } else {\n            smartNames[_id].setAdministrator(msg.sender);\n            smartNames[_id].setRecord(msg.sender);\n        }\n    }\n}",
  "sourcePath": "/home/steve/workspace/smart-name-service-2/smart-name-service/smart-name-system-contracts/contracts/smartnamesystem/registry/SmartNameRegistry.sol",
  "compiler": {
    "name": "solc",
    "version": "0.5.12+commit.7709ece9.Emscripten.clang"
  },
  "schemaVersion": "3.0.18",
  "updatedAt": "2020-01-05T08:11:25.060Z",
  "networkType": "ethereum",
  "devdoc": {
    "author": "Steve Despres - @stevedespres - steve.despres@protonmail.com",
    "details": "The smart name format is composed by \"name\" (bytes16) and \"extension\" (bytes4). The smart names have id, which is a keccak256 hash avec the \"name\" and \"extension\".",
    "methods": {
      "abandon(bytes32)": {
        "params": {
          "_id": "id of the smart name"
        }
      },
      "abandonWithUnlocker(bytes32,bytes32)": {
        "params": {
          "_id": "id of the smart name",
          "_unlocker": "unlocker of the smart name"
        }
      },
      "getAdministrator()": {
        "return": "address, number of smart names, wallet"
      },
      "getAdministratorByAddress(address)": {
        "params": {
          "_address": "address"
        },
        "return": "address, number of smart names, wallet"
      },
      "getAdministratorOf(bytes32)": {
        "params": {
          "_id": "id of a smart name"
        },
        "return": "address, number of smart names, wallet"
      },
      "getIdOf(bytes16,bytes4)": {
        "params": {
          "_ext": "extension",
          "_name": "name"
        },
        "return": "id"
      },
      "getNbSmartNamesTotal()": {
        "return": "number of smart names"
      },
      "getSmartName(bytes32)": {
        "params": {
          "_id": "id of a smart name"
        },
        "return": "Id, SmartNameContract, name, extension, administrator, record"
      },
      "isUnlocker(bytes32,bytes32)": {
        "params": {
          "_id": "id",
          "_unlocker": "unlocker"
        }
      },
      "modifyAdministrator(bytes32,address)": {
        "params": {
          "_id": "id of the smart name",
          "_newAdministrator": "new administrator"
        },
        "return": "Id and SmartName contract"
      },
      "modifyAdministratorWithUnlocker(bytes32,address,bytes32)": {
        "params": {
          "_id": "id of the smart name",
          "_newAdministrator": "new administrator",
          "_unlocker": "unlocker of the smart name"
        },
        "return": "Id and SmartName contract"
      },
      "modifyRecord(bytes32,address)": {
        "params": {
          "_id": "id of the smart name",
          "_newRecord": "new record"
        },
        "return": "SmartNameContract"
      },
      "modifyRecordWithUnlocker(bytes32,address,bytes32)": {
        "params": {
          "_id": "id of the smart name",
          "_newRecord": "new record",
          "_unlocker": "unlocker of the smart name"
        },
        "return": "SmartNameContract"
      },
      "register(bytes16,bytes4)": {
        "params": {
          "_ext": "extension",
          "_name": "name"
        },
        "return": "Id and SmartName contract"
      },
      "removeUnlocker(bytes32)": {
        "params": {
          "_id": "id of the smart name"
        }
      },
      "setUnlocker(bytes32,bytes32)": {
        "params": {
          "_id": "id of the smart name",
          "_unlocker": "unlocker of the smart name"
        }
      }
    },
    "title": "SmartNameRegistry"
  },
  "userdoc": {
    "methods": {
      "abandon(bytes32)": {
        "notice": "Abandon a smart name"
      },
      "abandonWithUnlocker(bytes32,bytes32)": {
        "notice": "Abandon a smart name with Unlocker"
      },
      "getAdministrator()": {
        "notice": "Get Administrator from the caller"
      },
      "getAdministratorByAddress(address)": {
        "notice": "Get Administrator by Address"
      },
      "getAdministratorOf(bytes32)": {
        "notice": "Get Administrator of a smart name"
      },
      "getIdOf(bytes16,bytes4)": {
        "notice": "Get id by name and extension"
      },
      "getNbSmartNamesTotal()": {
        "notice": "Get number of smart names"
      },
      "getSmartName(bytes32)": {
        "notice": "Get smart name by id"
      },
      "isUnlocker(bytes32,bytes32)": {
        "notice": "Register the smart name. The administrator and the record of the smart name are set up."
      },
      "modifyAdministrator(bytes32,address)": {
        "notice": "Modifiy the administrator of a smart name"
      },
      "modifyAdministratorWithUnlocker(bytes32,address,bytes32)": {
        "notice": "Modifiy the administrator of a smart name with Unlocker"
      },
      "modifyRecord(bytes32,address)": {
        "notice": "Modify the record of a smart name"
      },
      "modifyRecordWithUnlocker(bytes32,address,bytes32)": {
        "notice": "Modify the record of a smart name with unlocker"
      },
      "register(bytes16,bytes4)": {
        "notice": "Register a smart name"
      },
      "removeUnlocker(bytes32)": {
        "notice": "Remove the unlocker of a smart name"
      },
      "setUnlocker(bytes32,bytes32)": {
        "notice": "Set an unlocker for a smart name. An unlocker is a code that permit to manage a domain name not being the administrator."
      }
    },
    "notice": "This contract represents a register of smart name. Users can register and manage smart names, with traditionnal domain name format (\"name\".\"ext\"), and associate a record to this smart name. The record is an ethereum address."
  }
}