{
  "contractName": "SmartName",
  "abi": [
    {
      "inputs": [
        {
          "internalType": "bytes32",
          "name": "_id",
          "type": "bytes32"
        },
        {
          "internalType": "bytes16",
          "name": "_name",
          "type": "bytes16"
        },
        {
          "internalType": "bytes4",
          "name": "_ext",
          "type": "bytes4"
        },
        {
          "internalType": "address",
          "name": "_administrator",
          "type": "address"
        },
        {
          "internalType": "address",
          "name": "_record",
          "type": "address"
        }
      ],
      "payable": false,
      "stateMutability": "nonpayable",
      "type": "constructor"
    },
    {
      "anonymous": false,
      "inputs": [
        {
          "indexed": false,
          "internalType": "bytes32",
          "name": "id",
          "type": "bytes32"
        }
      ],
      "name": "LogForAdministratorUpdate",
      "type": "event"
    },
    {
      "anonymous": false,
      "inputs": [
        {
          "indexed": false,
          "internalType": "bytes32",
          "name": "id",
          "type": "bytes32"
        }
      ],
      "name": "LogForCreation",
      "type": "event"
    },
    {
      "anonymous": false,
      "inputs": [
        {
          "indexed": false,
          "internalType": "bytes32",
          "name": "id",
          "type": "bytes32"
        }
      ],
      "name": "LogForRecordUpdate",
      "type": "event"
    },
    {
      "anonymous": false,
      "inputs": [
        {
          "indexed": false,
          "internalType": "address",
          "name": "recipient",
          "type": "address"
        }
      ],
      "name": "PrimaryTransferred",
      "type": "event"
    },
    {
      "constant": true,
      "inputs": [],
      "name": "administrator",
      "outputs": [
        {
          "internalType": "address",
          "name": "",
          "type": "address"
        }
      ],
      "payable": false,
      "stateMutability": "view",
      "type": "function"
    },
    {
      "constant": true,
      "inputs": [],
      "name": "ext",
      "outputs": [
        {
          "internalType": "bytes4",
          "name": "",
          "type": "bytes4"
        }
      ],
      "payable": false,
      "stateMutability": "view",
      "type": "function"
    },
    {
      "constant": true,
      "inputs": [],
      "name": "id",
      "outputs": [
        {
          "internalType": "bytes32",
          "name": "",
          "type": "bytes32"
        }
      ],
      "payable": false,
      "stateMutability": "view",
      "type": "function"
    },
    {
      "constant": true,
      "inputs": [],
      "name": "name",
      "outputs": [
        {
          "internalType": "bytes16",
          "name": "",
          "type": "bytes16"
        }
      ],
      "payable": false,
      "stateMutability": "view",
      "type": "function"
    },
    {
      "constant": true,
      "inputs": [],
      "name": "primary",
      "outputs": [
        {
          "internalType": "address",
          "name": "",
          "type": "address"
        }
      ],
      "payable": false,
      "stateMutability": "view",
      "type": "function"
    },
    {
      "constant": true,
      "inputs": [],
      "name": "record",
      "outputs": [
        {
          "internalType": "address",
          "name": "",
          "type": "address"
        }
      ],
      "payable": false,
      "stateMutability": "view",
      "type": "function"
    },
    {
      "constant": false,
      "inputs": [
        {
          "internalType": "address",
          "name": "recipient",
          "type": "address"
        }
      ],
      "name": "transferPrimary",
      "outputs": [],
      "payable": false,
      "stateMutability": "nonpayable",
      "type": "function"
    },
    {
      "constant": false,
      "inputs": [
        {
          "internalType": "address",
          "name": "_administrator",
          "type": "address"
        }
      ],
      "name": "setAdministrator",
      "outputs": [],
      "payable": false,
      "stateMutability": "nonpayable",
      "type": "function"
    },
    {
      "constant": false,
      "inputs": [
        {
          "internalType": "address",
          "name": "_record",
          "type": "address"
        }
      ],
      "name": "setRecord",
      "outputs": [],
      "payable": false,
      "stateMutability": "nonpayable",
      "type": "function"
    },
    {
      "constant": true,
      "inputs": [],
      "name": "get",
      "outputs": [
        {
          "internalType": "bytes32",
          "name": "",
          "type": "bytes32"
        },
        {
          "internalType": "bytes16",
          "name": "",
          "type": "bytes16"
        },
        {
          "internalType": "bytes4",
          "name": "",
          "type": "bytes4"
        },
        {
          "internalType": "address",
          "name": "",
          "type": "address"
        },
        {
          "internalType": "address",
          "name": "",
          "type": "address"
        }
      ],
      "payable": false,
      "stateMutability": "view",
      "type": "function"
    },
    {
      "constant": true,
      "inputs": [],
      "name": "getId",
      "outputs": [
        {
          "internalType": "bytes32",
          "name": "",
          "type": "bytes32"
        }
      ],
      "payable": false,
      "stateMutability": "view",
      "type": "function"
    },
    {
      "constant": true,
      "inputs": [],
      "name": "getName",
      "outputs": [
        {
          "internalType": "bytes16",
          "name": "",
          "type": "bytes16"
        }
      ],
      "payable": false,
      "stateMutability": "view",
      "type": "function"
    },
    {
      "constant": true,
      "inputs": [],
      "name": "getExtension",
      "outputs": [
        {
          "internalType": "bytes4",
          "name": "",
          "type": "bytes4"
        }
      ],
      "payable": false,
      "stateMutability": "view",
      "type": "function"
    },
    {
      "constant": true,
      "inputs": [],
      "name": "getAdministrator",
      "outputs": [
        {
          "internalType": "address",
          "name": "",
          "type": "address"
        }
      ],
      "payable": false,
      "stateMutability": "view",
      "type": "function"
    },
    {
      "constant": true,
      "inputs": [],
      "name": "getRecord",
      "outputs": [
        {
          "internalType": "address",
          "name": "",
          "type": "address"
        }
      ],
      "payable": false,
      "stateMutability": "view",
      "type": "function"
    }
  ],
  "bytecode": "0x608060405234801561001057600080fd5b50604051610ffb380380610ffb833981810160405260a081101561003357600080fd5b81019080805190602001909291908051906020019092919080519060200190929190805190602001909291908051906020019092919050505061007a6103ad60201b60201c565b6000806101000a81548173ffffffffffffffffffffffffffffffffffffffff021916908373ffffffffffffffffffffffffffffffffffffffff1602179055507f4101e71e974f68df5e9730cc223280b41654676bbb052cdcc735c3337e64d2d96000809054906101000a900473ffffffffffffffffffffffffffffffffffffffff16604051808273ffffffffffffffffffffffffffffffffffffffff1673ffffffffffffffffffffffffffffffffffffffff16815260200191505060405180910390a18383600060f81b8260006010811061015157fe5b1a60f81b7effffffffffffffffffffffffffffffffffffffffffffffffffffffffffffff191614156101eb576040517f08c379a00000000000000000000000000000000000000000000000000000000081526004018080602001828103825260188152602001807f4572726f723a20546865206e616d6520697320656d707479000000000000000081525060200191505060405180910390fd5b600060f81b816000600481106101fd57fe5b1a60f81b7effffffffffffffffffffffffffffffffffffffffffffffffffffffffffffff19161415610297576040517f08c379a000000000000000000000000000000000000000000000000000000000815260040180806020018281038252601d8152602001807f4572726f723a2054686520657874656e73696f6e20697320656d70747900000081525060200191505060405180910390fd5b8660018190555085600260006101000a8154816fffffffffffffffffffffffffffffffff021916908360801c021790555084600260106101000a81548163ffffffff021916908360e01c021790555083600360006101000a81548173ffffffffffffffffffffffffffffffffffffffff021916908373ffffffffffffffffffffffffffffffffffffffff16021790555082600460006101000a81548173ffffffffffffffffffffffffffffffffffffffff021916908373ffffffffffffffffffffffffffffffffffffffff1602179055507f23c50d3ffad941dcf92f2d6d9cf9e50449bb840d2e71bb8c040c9253e4f88e636001546040518082815260200191505060405180910390a1505050505050506103b5565b600033905090565b610c37806103c46000396000f3fe608060405234801561001057600080fd5b50600436106100f55760003560e01c8063776ce6a111610097578063cf9f23b511610066578063cf9f23b514610476578063df8089ef146104d2578063f18ad6fb14610516578063f53d0a8e14610560576100f5565b8063776ce6a11461036e578063af640d0f146103ca578063c37787d9146103e8578063c6dbdf611461042c576100f5565b80632348238c116100d35780632348238c146101cc578063266cf109146102105780635d1ca6311461025a5780636d4ce63c14610278576100f5565b806306fdde03146100fa578063169674071461013e57806317d7de7c14610188575b600080fd5b6101026105aa565b60405180826fffffffffffffffffffffffffffffffff19166fffffffffffffffffffffffffffffffff1916815260200191505060405180910390f35b6101466105bd565b604051808273ffffffffffffffffffffffffffffffffffffffff1673ffffffffffffffffffffffffffffffffffffffff16815260200191505060405180910390f35b6101906105e7565b60405180826fffffffffffffffffffffffffffffffff19166fffffffffffffffffffffffffffffffff1916815260200191505060405180910390f35b61020e600480360360208110156101e257600080fd5b81019080803573ffffffffffffffffffffffffffffffffffffffff1690602001909291905050506105fe565b005b6102186107f7565b604051808273ffffffffffffffffffffffffffffffffffffffff1673ffffffffffffffffffffffffffffffffffffffff16815260200191505060405180910390f35b61026261081d565b6040518082815260200191505060405180910390f35b610280610827565b60405180868152602001856fffffffffffffffffffffffffffffffff19166fffffffffffffffffffffffffffffffff19168152602001847bffffffffffffffffffffffffffffffffffffffffffffffffffffffff19167bffffffffffffffffffffffffffffffffffffffffffffffffffffffff191681526020018373ffffffffffffffffffffffffffffffffffffffff1673ffffffffffffffffffffffffffffffffffffffff1681526020018273ffffffffffffffffffffffffffffffffffffffff1673ffffffffffffffffffffffffffffffffffffffff1681526020019550505050505060405180910390f35b6103766108a9565b60405180827bffffffffffffffffffffffffffffffffffffffffffffffffffffffff19167bffffffffffffffffffffffffffffffffffffffffffffffffffffffff1916815260200191505060405180910390f35b6103d26108c0565b6040518082815260200191505060405180910390f35b61042a600480360360208110156103fe57600080fd5b81019080803573ffffffffffffffffffffffffffffffffffffffff1690602001909291905050506108c6565b005b6104346109ef565b604051808273ffffffffffffffffffffffffffffffffffffffff1673ffffffffffffffffffffffffffffffffffffffff16815260200191505060405180910390f35b61047e610a18565b60405180827bffffffffffffffffffffffffffffffffffffffffffffffffffffffff19167bffffffffffffffffffffffffffffffffffffffffffffffffffffffff1916815260200191505060405180910390f35b610514600480360360208110156104e857600080fd5b81019080803573ffffffffffffffffffffffffffffffffffffffff169060200190929190505050610a2b565b005b61051e610b54565b604051808273ffffffffffffffffffffffffffffffffffffffff1673ffffffffffffffffffffffffffffffffffffffff16815260200191505060405180910390f35b610568610b7e565b604051808273ffffffffffffffffffffffffffffffffffffffff1673ffffffffffffffffffffffffffffffffffffffff16815260200191505060405180910390f35b600260009054906101000a900460801b81565b6000600360009054906101000a900473ffffffffffffffffffffffffffffffffffffffff16905090565b6000600260009054906101000a900460801b905090565b6000809054906101000a900473ffffffffffffffffffffffffffffffffffffffff1673ffffffffffffffffffffffffffffffffffffffff1661063e610ba4565b73ffffffffffffffffffffffffffffffffffffffff16146106aa576040517f08c379a000000000000000000000000000000000000000000000000000000000815260040180806020018281038252602c815260200180610bd7602c913960400191505060405180910390fd5b600073ffffffffffffffffffffffffffffffffffffffff168173ffffffffffffffffffffffffffffffffffffffff161415610730576040517f08c379a000000000000000000000000000000000000000000000000000000000815260040180806020018281038252602a815260200180610bad602a913960400191505060405180910390fd5b806000806101000a81548173ffffffffffffffffffffffffffffffffffffffff021916908373ffffffffffffffffffffffffffffffffffffffff1602179055507f4101e71e974f68df5e9730cc223280b41654676bbb052cdcc735c3337e64d2d96000809054906101000a900473ffffffffffffffffffffffffffffffffffffffff16604051808273ffffffffffffffffffffffffffffffffffffffff1673ffffffffffffffffffffffffffffffffffffffff16815260200191505060405180910390a150565b600460009054906101000a900473ffffffffffffffffffffffffffffffffffffffff1681565b6000600154905090565b6000806000806000600154600260009054906101000a900460801b600260109054906101000a900460e01b600360009054906101000a900473ffffffffffffffffffffffffffffffffffffffff16600460009054906101000a900473ffffffffffffffffffffffffffffffffffffffff16945094509450945094509091929394565b6000600260109054906101000a900460e01b905090565b60015481565b6000809054906101000a900473ffffffffffffffffffffffffffffffffffffffff1673ffffffffffffffffffffffffffffffffffffffff16610906610ba4565b73ffffffffffffffffffffffffffffffffffffffff1614610972576040517f08c379a000000000000000000000000000000000000000000000000000000000815260040180806020018281038252602c815260200180610bd7602c913960400191505060405180910390fd5b80600460006101000a81548173ffffffffffffffffffffffffffffffffffffffff021916908373ffffffffffffffffffffffffffffffffffffffff1602179055507f0c286e79f399f07f3dad272c21ed81f69865eb9243194e22aaa37abb8bcf2afe6001546040518082815260200191505060405180910390a150565b60008060009054906101000a900473ffffffffffffffffffffffffffffffffffffffff16905090565b600260109054906101000a900460e01b81565b6000809054906101000a900473ffffffffffffffffffffffffffffffffffffffff1673ffffffffffffffffffffffffffffffffffffffff16610a6b610ba4565b73ffffffffffffffffffffffffffffffffffffffff1614610ad7576040517f08c379a000000000000000000000000000000000000000000000000000000000815260040180806020018281038252602c815260200180610bd7602c913960400191505060405180910390fd5b80600360006101000a81548173ffffffffffffffffffffffffffffffffffffffff021916908373ffffffffffffffffffffffffffffffffffffffff1602179055507f720ea1461daee25ec973e51ae032c8eea455e2a4b12ae09ed0ed8e2cd832e10a6001546040518082815260200191505060405180910390a150565b6000600460009054906101000a900473ffffffffffffffffffffffffffffffffffffffff16905090565b600360009054906101000a900473ffffffffffffffffffffffffffffffffffffffff1681565b60003390509056fe5365636f6e646172793a206e6577207072696d61727920697320746865207a65726f20616464726573735365636f6e646172793a2063616c6c6572206973206e6f7420746865207072696d617279206163636f756e74a265627a7a72315820ac1ac849512957cbe82e1174de1c8a34e9f3fa060697d45c791b5e4fc79d0edb64736f6c634300050c0032",
  "source": "pragma solidity ^0.5.0;\n\nimport \"@openzeppelin/contracts/ownership/Secondary.sol\";\n\n/**\n * @title SmartName\n * @author Steve Despres - @stevedespres - steve.despres@protonmail.com\n * @notice This contract represents a smart name. It is composed of an id (bytes32), a name (bytes16), an extension (bytes4), an administrator (address) and a record (address). It is owned by a it's creator, which is a registry. The administrator must use the registry contract to manage his smart name.\n */\ncontract SmartName is Secondary {\n\n    /**\n     * @notice Id\n     */\n    bytes32 public id;\n\n    /**\n     * @notice Name\n     */\n    bytes16 public name;\n\n    /**\n     * @notice Extension\n     */\n    bytes4 public ext;\n\n    /**\n     * @notice Administrator\n     */\n    address public administrator;\n\n    /**\n     * @notice Record\n     */\n    address public record;\n\n    /**\n     * @notice Log when a smart name is created\n     * @param id id of the smart name\n     */\n    event LogForCreation(bytes32 id);\n\n    /**\n     * @notice Log when the administrator of a smart name is updated\n     * @param id id of the smart name\n     */\n    event LogForAdministratorUpdate(bytes32 id);\n\n    /**\n     * @notice Log when the record of a smart name is updated\n     * @param id id of the smart name\n     */\n    event LogForRecordUpdate(bytes32 id);\n\n    /**\n     * @notice Modifier to verify that the name and the extension are not empty\n     * @param _name name\n     * @param _ext extension\n     */\n    modifier smartNameNotEmpty(bytes16 _name, bytes4 _ext)\n    {\n            require(_name[0] != 0, \"Error: The name is empty\");\n            require(_ext[0] != 0, \"Error: The extension is empty\");\n        _;\n    }\n\n    /**\n     * @notice Constructor of a smart name\n     * @param _id id\n     * @param _name name\n     * @param _ext extension\n     * @param _administrator administrator\n     * @param _record record\n     */\n    constructor(bytes32 _id, bytes16 _name, bytes4 _ext, address _administrator, address _record) public\n        smartNameNotEmpty(_name, _ext)\n    {\n        id = _id;\n        name = _name;\n        ext = _ext;\n        administrator = _administrator;\n        record = _record;\n        emit LogForCreation(id);\n    }\n\n    /**\n     * @notice Set the administrator\n     * @param _administrator new administrator\n     */\n    function setAdministrator(address _administrator) public\n        onlyPrimary()\n    {\n        administrator = _administrator;\n        emit LogForAdministratorUpdate(id);\n    }\n\n    /**\n     * @notice Set the record\n     * @param _record new administrator\n     */\n    function setRecord(address _record) public\n        onlyPrimary()\n    {\n        record = _record;\n        emit LogForRecordUpdate(id);\n    }\n\n    /**\n     * @notice Get the smart name\n     * @return id, name, extension, administrator, record\n     */\n    function get() public view\n        returns (bytes32, bytes16, bytes4, address, address)\n    {\n        return (id, name, ext, administrator, record);\n    }\n\n    /**\n     * @notice Get the id\n     * @return id\n     */\n    function getId() public view\n        returns (bytes32)\n    {\n        return id;\n    }\n\n    /**\n     * @notice Get the name\n     * @return name\n     */\n    function getName() public view\n        returns (bytes16)\n    {\n        return name;\n    }\n\n    /**\n     * @notice Get the extension\n     * @return extension\n     */\n    function getExtension() public view\n        returns (bytes4)\n    {\n        return ext;\n    }\n\n    /**\n     * @notice Get the administrator\n     * @return administrator\n     */\n    function getAdministrator() public view\n        returns (address)\n    {\n        return administrator;\n    }\n\n    /**\n     * @notice Get the record\n     * @return record\n     */\n    function getRecord() public view\n        returns (address)\n    {\n        return record;\n    }\n}",
  "sourcePath": "/home/steve/workspace/smart-name-service-2/smart-name-service/smart-name-system-contracts/contracts/smartnamesystem/registry/SmartName.sol",
  "compiler": {
    "name": "solc",
    "version": "0.5.12+commit.7709ece9.Emscripten.clang"
  },
  "schemaVersion": "3.0.18",
  "updatedAt": "2020-01-02T12:55:04.472Z",
  "devdoc": {
    "author": "Steve Despres - @stevedespres - steve.despres@protonmail.com",
    "methods": {
      "constructor": {
        "params": {
          "_administrator": "administrator",
          "_ext": "extension",
          "_id": "id",
          "_name": "name",
          "_record": "record"
        }
      },
      "get()": {
        "return": "id, name, extension, administrator, record"
      },
      "getAdministrator()": {
        "return": "administrator"
      },
      "getExtension()": {
        "return": "extension"
      },
      "getId()": {
        "return": "id"
      },
      "getName()": {
        "return": "name"
      },
      "getRecord()": {
        "return": "record"
      },
      "primary()": {
        "return": "the address of the primary."
      },
      "setAdministrator(address)": {
        "params": {
          "_administrator": "new administrator"
        }
      },
      "setRecord(address)": {
        "params": {
          "_record": "new administrator"
        }
      },
      "transferPrimary(address)": {
        "details": "Transfers contract to a new primary.",
        "params": {
          "recipient": "The address of new primary."
        }
      }
    },
    "title": "SmartName"
  },
  "userdoc": {
    "methods": {
      "constructor": "Constructor of a smart name",
      "get()": {
        "notice": "Get the smart name"
      },
      "getAdministrator()": {
        "notice": "Get the administrator"
      },
      "getExtension()": {
        "notice": "Get the extension"
      },
      "getId()": {
        "notice": "Get the id"
      },
      "getName()": {
        "notice": "Get the name"
      },
      "getRecord()": {
        "notice": "Get the record"
      },
      "setAdministrator(address)": {
        "notice": "Set the administrator"
      },
      "setRecord(address)": {
        "notice": "Set the record"
      }
    },
    "notice": "This contract represents a smart name. It is composed of an id (bytes32), a name (bytes16), an extension (bytes4), an administrator (address) and a record (address). It is owned by a it's creator, which is a registry. The administrator must use the registry contract to manage his smart name."
  }
}