{
  "contractName": "SmartNameLibrary",
  "abi": [
    {
      "constant": true,
      "inputs": [
        {
          "internalType": "bytes16",
          "name": "_name",
          "type": "bytes16"
        },
        {
          "internalType": "bytes4",
          "name": "_ext",
          "type": "bytes4"
        }
      ],
      "name": "getIdOf",
      "outputs": [
        {
          "internalType": "bytes32",
          "name": "",
          "type": "bytes32"
        }
      ],
      "payable": false,
      "stateMutability": "pure",
      "type": "function"
    }
  ],
  "bytecode": "0x61018a610026600b82828239805160001a60731461001957fe5b30600052607381538281f3fe73000000000000000000000000000000000000000030146080604052600436106100355760003560e01c8063d59b2e701461003a575b600080fd5b6100a26004803603604081101561005057600080fd5b8101908080356fffffffffffffffffffffffffffffffff1916906020019092919080357bffffffffffffffffffffffffffffffffffffffffffffffffffffffff191690602001909291905050506100b8565b6040518082815260200191505060405180910390f35b6000828260405160200180836fffffffffffffffffffffffffffffffff19166fffffffffffffffffffffffffffffffff19168152601001827bffffffffffffffffffffffffffffffffffffffffffffffffffffffff19167bffffffffffffffffffffffffffffffffffffffffffffffffffffffff19168152600401925050506040516020818303038152906040528051906020012090509291505056fea265627a7a72315820b053b3b91fac699312092e7ce97745df73e7bed05d6b577b19a8fa83055df7cb64736f6c634300050c0032",
  "source": "pragma solidity ^0.5.0;\n\n/**\n * @title SmartNameLibrary\n * @author Steve Despres - @stevedespres - steve.despres@protonmail.com\n * @notice This library provide some tools that can be used by other contracts\n */\nlibrary SmartNameLibrary {\n\n    /**\n     * @notice Get id by name and extension\n     * @param _name name\n     * @param _ext extension\n     * @return id\n     */\n    function getIdOf(bytes16 _name, bytes4 _ext) public pure returns(bytes32) {\n        return keccak256(abi.encodePacked(_name, _ext));\n    }\n}",
  "sourcePath": "/home/steve/workspace/smart-name-service-2/smart-name-service/smart-name-system-contracts/contracts/smartnamesystem/utils/SmartNameLibrary.sol",
  "compiler": {
    "name": "solc",
    "version": "0.5.12+commit.7709ece9.Emscripten.clang"
  },
  "schemaVersion": "3.0.18",
  "updatedAt": "2020-01-05T08:11:25.040Z",
  "networkType": "ethereum",
  "devdoc": {
    "author": "Steve Despres - @stevedespres - steve.despres@protonmail.com",
    "methods": {
      "getIdOf(bytes16,bytes4)": {
        "params": {
          "_ext": "extension",
          "_name": "name"
        },
        "return": "id"
      }
    },
    "title": "SmartNameLibrary"
  },
  "userdoc": {
    "methods": {
      "getIdOf(bytes16,bytes4)": {
        "notice": "Get id by name and extension"
      }
    },
    "notice": "This library provide some tools that can be used by other contracts"
  }
}