{
  "contractName": "SmartNameResolver",
  "abi": [
    {
      "inputs": [
        {
          "internalType": "address",
          "name": "_smartNameRegistryAddress",
          "type": "address"
        }
      ],
      "payable": false,
      "stateMutability": "nonpayable",
      "type": "constructor"
    },
    {
      "anonymous": false,
      "inputs": [],
      "name": "LogForServiceCreation",
      "type": "event"
    },
    {
      "constant": true,
      "inputs": [],
      "name": "smartNameRegistry",
      "outputs": [
        {
          "internalType": "contract SmartNameRegistry",
          "name": "",
          "type": "address"
        }
      ],
      "payable": false,
      "stateMutability": "view",
      "type": "function"
    },
    {
      "constant": true,
      "inputs": [
        {
          "internalType": "bytes16",
          "name": "_name",
          "type": "bytes16"
        },
        {
          "internalType": "bytes4",
          "name": "_ext",
          "type": "bytes4"
        }
      ],
      "name": "resolve",
      "outputs": [
        {
          "internalType": "address",
          "name": "",
          "type": "address"
        }
      ],
      "payable": false,
      "stateMutability": "view",
      "type": "function"
    },
    {
      "constant": true,
      "inputs": [
        {
          "internalType": "bytes16",
          "name": "_name",
          "type": "bytes16"
        },
        {
          "internalType": "bytes4",
          "name": "_ext",
          "type": "bytes4"
        }
      ],
      "name": "whois",
      "outputs": [
        {
          "internalType": "address",
          "name": "",
          "type": "address"
        }
      ],
      "payable": false,
      "stateMutability": "view",
      "type": "function"
    },
    {
      "constant": true,
      "inputs": [
        {
          "internalType": "bytes16",
          "name": "_name",
          "type": "bytes16"
        },
        {
          "internalType": "bytes4",
          "name": "_ext",
          "type": "bytes4"
        }
      ],
      "name": "get",
      "outputs": [
        {
          "internalType": "contract SmartName",
          "name": "",
          "type": "address"
        }
      ],
      "payable": false,
      "stateMutability": "view",
      "type": "function"
    }
  ],
  "bytecode": "0x608060405234801561001057600080fd5b506040516109e83803806109e88339818101604052602081101561003357600080fd5b810190808051906020019092919050505080806000806101000a81548173ffffffffffffffffffffffffffffffffffffffff021916908373ffffffffffffffffffffffffffffffffffffffff1602179055507f688f54efe6031395f1b7f624febefbeda4316d47730de13e69e7668e678ae4a160405160405180910390a15050610926806100c26000396000f3fe608060405234801561001057600080fd5b506004361061004c5760003560e01c806304ab9e2d14610051578063447fae6f1461009b5780636709ea0b14610145578063e8033652146101ef575b600080fd5b610059610299565b604051808273ffffffffffffffffffffffffffffffffffffffff1673ffffffffffffffffffffffffffffffffffffffff16815260200191505060405180910390f35b610103600480360360408110156100b157600080fd5b8101908080356fffffffffffffffffffffffffffffffff1916906020019092919080357bffffffffffffffffffffffffffffffffffffffffffffffffffffffff191690602001909291905050506102be565b604051808273ffffffffffffffffffffffffffffffffffffffff1673ffffffffffffffffffffffffffffffffffffffff16815260200191505060405180910390f35b6101ad6004803603604081101561015b57600080fd5b8101908080356fffffffffffffffffffffffffffffffff1916906020019092919080357bffffffffffffffffffffffffffffffffffffffffffffffffffffffff191690602001909291905050506104cf565b604051808273ffffffffffffffffffffffffffffffffffffffff1673ffffffffffffffffffffffffffffffffffffffff16815260200191505060405180910390f35b6102576004803603604081101561020557600080fd5b8101908080356fffffffffffffffffffffffffffffffff1916906020019092919080357bffffffffffffffffffffffffffffffffffffffffffffffffffffffff191690602001909291905050506106e0565b604051808273ffffffffffffffffffffffffffffffffffffffff1673ffffffffffffffffffffffffffffffffffffffff16815260200191505060405180910390f35b6000809054906101000a900473ffffffffffffffffffffffffffffffffffffffff1681565b6000806000809054906101000a900473ffffffffffffffffffffffffffffffffffffffff1673ffffffffffffffffffffffffffffffffffffffff1663d59b2e7085856040518363ffffffff1660e01b815260040180836fffffffffffffffffffffffffffffffff19166fffffffffffffffffffffffffffffffff19168152602001827bffffffffffffffffffffffffffffffffffffffffffffffffffffffff19167bffffffffffffffffffffffffffffffffffffffffffffffffffffffff191681526020019250505060206040518083038186803b15801561039f57600080fd5b505afa1580156103b3573d6000803e3d6000fd5b505050506040513d60208110156103c957600080fd5b8101908080519060200190929190505050905060008060009054906101000a900473ffffffffffffffffffffffffffffffffffffffff1673ffffffffffffffffffffffffffffffffffffffff166317e39e45836040518263ffffffff1660e01b81526004018082815260200191505060c06040518083038186803b15801561045057600080fd5b505afa158015610464573d6000803e3d6000fd5b505050506040513d60c081101561047a57600080fd5b8101908080519060200190929190805190602001909291908051906020019092919080519060200190929190805190602001909291908051906020019092919050505095505050505050809250505092915050565b6000806000809054906101000a900473ffffffffffffffffffffffffffffffffffffffff1673ffffffffffffffffffffffffffffffffffffffff1663d59b2e7085856040518363ffffffff1660e01b815260040180836fffffffffffffffffffffffffffffffff19166fffffffffffffffffffffffffffffffff19168152602001827bffffffffffffffffffffffffffffffffffffffffffffffffffffffff19167bffffffffffffffffffffffffffffffffffffffffffffffffffffffff191681526020019250505060206040518083038186803b1580156105b057600080fd5b505afa1580156105c4573d6000803e3d6000fd5b505050506040513d60208110156105da57600080fd5b8101908080519060200190929190505050905060008060009054906101000a900473ffffffffffffffffffffffffffffffffffffffff1673ffffffffffffffffffffffffffffffffffffffff166317e39e45836040518263ffffffff1660e01b81526004018082815260200191505060c06040518083038186803b15801561066157600080fd5b505afa158015610675573d6000803e3d6000fd5b505050506040513d60c081101561068b57600080fd5b8101908080519060200190929190805190602001909291908051906020019092919080519060200190929190805190602001909291908051906020019092919050505050945050505050809250505092915050565b6000806000809054906101000a900473ffffffffffffffffffffffffffffffffffffffff1673ffffffffffffffffffffffffffffffffffffffff1663d59b2e7085856040518363ffffffff1660e01b815260040180836fffffffffffffffffffffffffffffffff19166fffffffffffffffffffffffffffffffff19168152602001827bffffffffffffffffffffffffffffffffffffffffffffffffffffffff19167bffffffffffffffffffffffffffffffffffffffffffffffffffffffff191681526020019250505060206040518083038186803b1580156107c157600080fd5b505afa1580156107d5573d6000803e3d6000fd5b505050506040513d60208110156107eb57600080fd5b8101908080519060200190929190505050905060008060009054906101000a900473ffffffffffffffffffffffffffffffffffffffff1673ffffffffffffffffffffffffffffffffffffffff166317e39e45836040518263ffffffff1660e01b81526004018082815260200191505060c06040518083038186803b15801561087257600080fd5b505afa158015610886573d6000803e3d6000fd5b505050506040513d60c081101561089c57600080fd5b810190808051906020019092919080519060200190929190805190602001909291908051906020019092919080519060200190929190805190602001909291905050505050505091505080925050509291505056fea265627a7a723158201717c5c9ef37b17a2b5ea33d92395d45f216700ebafcc2368b1a4467d16af55064736f6c634300050c0032",
  "source": "pragma solidity ^0.5.0;\n\nimport \"../../registry/SmartName.sol\";\nimport \"../SmartNameService.sol\";\n\n/**\n * @title SmartNameResolver\n * @author Steve Despres - @stevedespres - steve.despres@protonmail.com\n * @notice This contract represents a resolver of smart name. It can be used to resolve smart names and get informations about it\n */\ncontract SmartNameResolver is SmartNameService {\n\n   /**\n     * @notice Constructor of a Smart name resolver\n     * @param _smartNameRegistryAddress SmartNameRegistry address\n     */\n    constructor(address _smartNameRegistryAddress) SmartNameService(_smartNameRegistryAddress) public\n    {}\n\n     /**\n     * @notice Resolve a smart name\n     * @param _name name\n     * @param _ext extension\n     * @return address of the record\n     */\n    function resolve(bytes16 _name, bytes4 _ext) public view\n        returns (address)\n    {\n        bytes32 id = smartNameRegistry.getIdOf(_name, _ext);\n        (,,,,, address record) = smartNameRegistry.getSmartName(id);\n        return record;\n    }\n\n    /**\n     * @notice Get the administrator of a smart name\n     * @param _name name\n     * @param _ext extension\n     * @return address of the administrator\n     */\n    function whois(bytes16 _name, bytes4 _ext) public view\n        returns (address)\n    {\n        bytes32 id = smartNameRegistry.getIdOf(_name, _ext);\n        (, , , , address administrator, ) = smartNameRegistry.getSmartName(id);\n        return administrator;\n    }\n\n    /**\n     * @notice Get a smart name\n     * @param _name name\n     * @param _ext extension\n     * @return address of the smart name contract\n     */\n    function get(bytes16 _name, bytes4 _ext) public view\n        returns (SmartName)\n    {\n        bytes32 id = smartNameRegistry.getIdOf(_name, _ext);\n        (,SmartName smartName, , , , ) = smartNameRegistry.getSmartName(id);\n        return smartName;\n    }\n}",
  "sourcePath": "/home/steve/workspace/smart-name-service-2/smart-name-service/smart-name-system-contracts/contracts/smartnamesystem/services/resolver/SmartNameResolver.sol",
  "compiler": {
    "name": "solc",
    "version": "0.5.12+commit.7709ece9.Emscripten.clang"
  },
  "schemaVersion": "3.0.18",
  "updatedAt": "2020-01-05T08:11:25.076Z",
  "networkType": "ethereum",
  "devdoc": {
    "author": "Steve Despres - @stevedespres - steve.despres@protonmail.com",
    "methods": {
      "constructor": {
        "params": {
          "_smartNameRegistryAddress": "SmartNameRegistry address"
        }
      },
      "get(bytes16,bytes4)": {
        "params": {
          "_ext": "extension",
          "_name": "name"
        },
        "return": "address of the smart name contract"
      },
      "resolve(bytes16,bytes4)": {
        "params": {
          "_ext": "extension",
          "_name": "name"
        },
        "return": "address of the record"
      },
      "whois(bytes16,bytes4)": {
        "params": {
          "_ext": "extension",
          "_name": "name"
        },
        "return": "address of the administrator"
      }
    },
    "title": "SmartNameResolver"
  },
  "userdoc": {
    "methods": {
      "constructor": "Constructor of a Smart name resolver",
      "get(bytes16,bytes4)": {
        "notice": "Get a smart name"
      },
      "resolve(bytes16,bytes4)": {
        "notice": "Resolve a smart name"
      },
      "whois(bytes16,bytes4)": {
        "notice": "Get the administrator of a smart name"
      }
    },
    "notice": "This contract represents a resolver of smart name. It can be used to resolve smart names and get informations about it"
  }
}