{
  "contractName": "SmartNameMarket",
  "abi": [
    {
      "inputs": [
        {
          "internalType": "address",
          "name": "_smartNameRegistryAddress",
          "type": "address"
        }
      ],
      "payable": false,
      "stateMutability": "nonpayable",
      "type": "constructor"
    },
    {
      "anonymous": false,
      "inputs": [
        {
          "indexed": false,
          "internalType": "bytes32",
          "name": "id",
          "type": "bytes32"
        }
      ],
      "name": "LogForCancelSaleOnMarket",
      "type": "event"
    },
    {
      "anonymous": false,
      "inputs": [
        {
          "indexed": false,
          "internalType": "bytes32",
          "name": "id",
          "type": "bytes32"
        },
        {
          "indexed": false,
          "internalType": "uint256",
          "name": "price",
          "type": "uint256"
        }
      ],
      "name": "LogForPriceUpdateOnMarket",
      "type": "event"
    },
    {
      "anonymous": false,
      "inputs": [
        {
          "indexed": false,
          "internalType": "bytes32",
          "name": "id",
          "type": "bytes32"
        },
        {
          "indexed": false,
          "internalType": "uint256",
          "name": "price",
          "type": "uint256"
        }
      ],
      "name": "LogForPutOnSaleOnMarket",
      "type": "event"
    },
    {
      "anonymous": false,
      "inputs": [
        {
          "indexed": false,
          "internalType": "bytes32",
          "name": "id",
          "type": "bytes32"
        },
        {
          "indexed": false,
          "internalType": "uint256",
          "name": "price",
          "type": "uint256"
        },
        {
          "indexed": false,
          "internalType": "address",
          "name": "buyer",
          "type": "address"
        }
      ],
      "name": "LogForSaleOnMarket",
      "type": "event"
    },
    {
      "anonymous": false,
      "inputs": [],
      "name": "LogForServiceCreation",
      "type": "event"
    },
    {
      "constant": true,
      "inputs": [
        {
          "internalType": "bytes32",
          "name": "",
          "type": "bytes32"
        }
      ],
      "name": "indexes",
      "outputs": [
        {
          "internalType": "uint256",
          "name": "",
          "type": "uint256"
        }
      ],
      "payable": false,
      "stateMutability": "view",
      "type": "function"
    },
    {
      "constant": true,
      "inputs": [
        {
          "internalType": "bytes32",
          "name": "",
          "type": "bytes32"
        }
      ],
      "name": "items",
      "outputs": [
        {
          "internalType": "contract SmartName",
          "name": "smartName",
          "type": "address"
        },
        {
          "internalType": "uint256",
          "name": "price",
          "type": "uint256"
        },
        {
          "internalType": "bytes32",
          "name": "unlocker",
          "type": "bytes32"
        }
      ],
      "payable": false,
      "stateMutability": "view",
      "type": "function"
    },
    {
      "constant": true,
      "inputs": [],
      "name": "nbItemsTotal",
      "outputs": [
        {
          "internalType": "uint256",
          "name": "",
          "type": "uint256"
        }
      ],
      "payable": false,
      "stateMutability": "view",
      "type": "function"
    },
    {
      "constant": true,
      "inputs": [
        {
          "internalType": "address",
          "name": "dest",
          "type": "address"
        }
      ],
      "name": "payments",
      "outputs": [
        {
          "internalType": "uint256",
          "name": "",
          "type": "uint256"
        }
      ],
      "payable": false,
      "stateMutability": "view",
      "type": "function"
    },
    {
      "constant": true,
      "inputs": [
        {
          "internalType": "address",
          "name": "",
          "type": "address"
        }
      ],
      "name": "sellers",
      "outputs": [
        {
          "internalType": "address",
          "name": "addr",
          "type": "address"
        },
        {
          "internalType": "uint256",
          "name": "nbItems",
          "type": "uint256"
        }
      ],
      "payable": false,
      "stateMutability": "view",
      "type": "function"
    },
    {
      "constant": true,
      "inputs": [],
      "name": "smartNameRegistry",
      "outputs": [
        {
          "internalType": "contract SmartNameRegistry",
          "name": "",
          "type": "address"
        }
      ],
      "payable": false,
      "stateMutability": "view",
      "type": "function"
    },
    {
      "constant": false,
      "inputs": [
        {
          "internalType": "address payable",
          "name": "payee",
          "type": "address"
        }
      ],
      "name": "withdrawPayments",
      "outputs": [],
      "payable": false,
      "stateMutability": "nonpayable",
      "type": "function"
    },
    {
      "constant": false,
      "inputs": [
        {
          "internalType": "address payable",
          "name": "payee",
          "type": "address"
        }
      ],
      "name": "withdrawPaymentsWithGas",
      "outputs": [],
      "payable": false,
      "stateMutability": "nonpayable",
      "type": "function"
    },
    {
      "constant": false,
      "inputs": [
        {
          "internalType": "bytes32",
          "name": "_id",
          "type": "bytes32"
        },
        {
          "internalType": "uint256",
          "name": "_price",
          "type": "uint256"
        },
        {
          "internalType": "bytes32",
          "name": "_unlocker",
          "type": "bytes32"
        }
      ],
      "name": "sell",
      "outputs": [
        {
          "internalType": "bytes32",
          "name": "",
          "type": "bytes32"
        },
        {
          "internalType": "uint256",
          "name": "",
          "type": "uint256"
        }
      ],
      "payable": false,
      "stateMutability": "nonpayable",
      "type": "function"
    },
    {
      "constant": false,
      "inputs": [
        {
          "internalType": "bytes32",
          "name": "_id",
          "type": "bytes32"
        }
      ],
      "name": "cancelSale",
      "outputs": [
        {
          "internalType": "bytes32",
          "name": "",
          "type": "bytes32"
        }
      ],
      "payable": false,
      "stateMutability": "nonpayable",
      "type": "function"
    },
    {
      "constant": false,
      "inputs": [
        {
          "internalType": "bytes32",
          "name": "_id",
          "type": "bytes32"
        }
      ],
      "name": "buy",
      "outputs": [
        {
          "internalType": "bytes32",
          "name": "",
          "type": "bytes32"
        },
        {
          "internalType": "uint256",
          "name": "",
          "type": "uint256"
        },
        {
          "internalType": "address",
          "name": "",
          "type": "address"
        }
      ],
      "payable": true,
      "stateMutability": "payable",
      "type": "function"
    },
    {
      "constant": false,
      "inputs": [
        {
          "internalType": "bytes32",
          "name": "_id",
          "type": "bytes32"
        },
        {
          "internalType": "uint256",
          "name": "_newPrice",
          "type": "uint256"
        }
      ],
      "name": "modifyPrice",
      "outputs": [
        {
          "internalType": "bytes32",
          "name": "",
          "type": "bytes32"
        },
        {
          "internalType": "uint256",
          "name": "",
          "type": "uint256"
        }
      ],
      "payable": true,
      "stateMutability": "payable",
      "type": "function"
    },
    {
      "constant": true,
      "inputs": [
        {
          "internalType": "bytes32",
          "name": "_id",
          "type": "bytes32"
        }
      ],
      "name": "getItem",
      "outputs": [
        {
          "internalType": "bytes32",
          "name": "",
          "type": "bytes32"
        },
        {
          "internalType": "uint256",
          "name": "",
          "type": "uint256"
        },
        {
          "internalType": "address",
          "name": "",
          "type": "address"
        }
      ],
      "payable": false,
      "stateMutability": "view",
      "type": "function"
    },
    {
      "constant": true,
      "inputs": [],
      "name": "getSeller",
      "outputs": [
        {
          "internalType": "address",
          "name": "",
          "type": "address"
        },
        {
          "internalType": "uint256",
          "name": "",
          "type": "uint256"
        },
        {
          "internalType": "bytes32[]",
          "name": "",
          "type": "bytes32[]"
        }
      ],
      "payable": false,
      "stateMutability": "view",
      "type": "function"
    },
    {
      "constant": true,
      "inputs": [
        {
          "internalType": "bytes32",
          "name": "_id",
          "type": "bytes32"
        }
      ],
      "name": "getSellerOf",
      "outputs": [
        {
          "internalType": "address",
          "name": "",
          "type": "address"
        },
        {
          "internalType": "uint256",
          "name": "",
          "type": "uint256"
        },
        {
          "internalType": "bytes32[]",
          "name": "",
          "type": "bytes32[]"
        }
      ],
      "payable": false,
      "stateMutability": "view",
      "type": "function"
    },
    {
      "constant": true,
      "inputs": [
        {
          "internalType": "address",
          "name": "_seller",
          "type": "address"
        }
      ],
      "name": "getSellerByAddress",
      "outputs": [
        {
          "internalType": "address",
          "name": "",
          "type": "address"
        },
        {
          "internalType": "uint256",
          "name": "",
          "type": "uint256"
        },
        {
          "internalType": "bytes32[]",
          "name": "",
          "type": "bytes32[]"
        }
      ],
      "payable": false,
      "stateMutability": "view",
      "type": "function"
    },
    {
      "constant": true,
      "inputs": [],
      "name": "getNbItemsTotal",
      "outputs": [
        {
          "internalType": "uint256",
          "name": "",
          "type": "uint256"
        }
      ],
      "payable": false,
      "stateMutability": "view",
      "type": "function"
    }
  ],
  "bytecode": "0x60806040523480156200001157600080fd5b50604051620035a7380380620035a7833981810160405260208110156200003757600080fd5b810190808051906020019092919050505080806000806101000a81548173ffffffffffffffffffffffffffffffffffffffff021916908373ffffffffffffffffffffffffffffffffffffffff1602179055507f688f54efe6031395f1b7f624febefbeda4316d47730de13e69e7668e678ae4a160405160405180910390a150604051620000c49062000129565b604051809103906000f080158015620000e1573d6000803e3d6000fd5b50600160006101000a81548173ffffffffffffffffffffffffffffffffffffffff021916908373ffffffffffffffffffffffffffffffffffffffff1602179055505062000137565b610d65806200284283390190565b6126fb80620001476000396000f3fe6080604052600436106100fe5760003560e01c8063aa0372e711610095578063dbd0e1b611610064578063dbd0e1b614610635578063e2982c21146106db578063e9bc945f14610740578063f0e199f01461076b578063f9176a2b146107be576100fe565b8063aa0372e7146104c8578063ae215fab14610551578063b84e4d86146105bb578063c8b9fb76146105e6576100fe565b806348f343f3116100d157806348f343f3146102da578063653cfa59146103635780636d47ab72146103b45780639c9a10611461044c576100fe565b806304ab9e2d146101035780630bea89851461015a5780632e1528ae146101a957806331b3eb9414610289575b600080fd5b34801561010f57600080fd5b50610118610888565b604051808273ffffffffffffffffffffffffffffffffffffffff1673ffffffffffffffffffffffffffffffffffffffff16815260200191505060405180910390f35b34801561016657600080fd5b506101936004803603602081101561017d57600080fd5b81019080803590602001909291905050506108ad565b6040518082815260200191505060405180910390f35b3480156101b557600080fd5b506101f8600480360360208110156101cc57600080fd5b81019080803573ffffffffffffffffffffffffffffffffffffffff169060200190929190505050610b9e565b604051808473ffffffffffffffffffffffffffffffffffffffff1673ffffffffffffffffffffffffffffffffffffffff16815260200183815260200180602001828103825283818151815260200191508051906020019060200280838360005b83811015610273578082015181840152602081019050610258565b5050505090500194505050505060405180910390f35b34801561029557600080fd5b506102d8600480360360208110156102ac57600080fd5b81019080803573ffffffffffffffffffffffffffffffffffffffff169060200190929190505050610d72565b005b3480156102e657600080fd5b50610313600480360360208110156102fd57600080fd5b8101908080359060200190929190505050610e2e565b604051808473ffffffffffffffffffffffffffffffffffffffff1673ffffffffffffffffffffffffffffffffffffffff168152602001838152602001828152602001935050505060405180910390f35b34801561036f57600080fd5b506103b26004803603602081101561038657600080fd5b81019080803573ffffffffffffffffffffffffffffffffffffffff169060200190929190505050610e78565b005b3480156103c057600080fd5b50610403600480360360208110156103d757600080fd5b81019080803573ffffffffffffffffffffffffffffffffffffffff169060200190929190505050610f34565b604051808373ffffffffffffffffffffffffffffffffffffffff1673ffffffffffffffffffffffffffffffffffffffff1681526020018281526020019250505060405180910390f35b6104786004803603602081101561046257600080fd5b8101908080359060200190929190505050610f78565b604051808481526020018381526020018273ffffffffffffffffffffffffffffffffffffffff1673ffffffffffffffffffffffffffffffffffffffff168152602001935050505060405180910390f35b3480156104d457600080fd5b50610501600480360360208110156104eb57600080fd5b8101908080359060200190929190505050611397565b604051808481526020018381526020018273ffffffffffffffffffffffffffffffffffffffff1673ffffffffffffffffffffffffffffffffffffffff168152602001935050505060405180910390f35b34801561055d57600080fd5b5061059e6004803603606081101561057457600080fd5b81019080803590602001909291908035906020019092919080359060200190929190505050611536565b604051808381526020018281526020019250505060405180910390f35b3480156105c757600080fd5b506105d0611d36565b6040518082815260200191505060405180910390f35b3480156105f257600080fd5b5061061f6004803603602081101561060957600080fd5b8101908080359060200190929190505050611d40565b6040518082815260200191505060405180910390f35b34801561064157600080fd5b5061064a611d58565b604051808473ffffffffffffffffffffffffffffffffffffffff1673ffffffffffffffffffffffffffffffffffffffff16815260200183815260200180602001828103825283818151815260200191508051906020019060200280838360005b838110156106c55780820151818401526020810190506106aa565b5050505090500194505050505060405180910390f35b3480156106e757600080fd5b5061072a600480360360208110156106fe57600080fd5b81019080803573ffffffffffffffffffffffffffffffffffffffff169060200190929190505050611d71565b6040518082815260200191505060405180910390f35b34801561074c57600080fd5b50610755611e54565b6040518082815260200191505060405180910390f35b6107a16004803603604081101561078157600080fd5b810190808035906020019092919080359060200190929190505050611e5a565b604051808381526020018281526020019250505060405180910390f35b3480156107ca57600080fd5b506107f7600480360360208110156107e157600080fd5b810190808035906020019092919050505061216a565b604051808473ffffffffffffffffffffffffffffffffffffffff1673ffffffffffffffffffffffffffffffffffffffff16815260200183815260200180602001828103825283818151815260200191508051906020019060200280838360005b83811015610872578082015181840152602081019050610857565b5050505090500194505050505060405180910390f35b6000809054906101000a900473ffffffffffffffffffffffffffffffffffffffff1681565b600081600073ffffffffffffffffffffffffffffffffffffffff166002600083815260200190815260200160002060000160009054906101000a900473ffffffffffffffffffffffffffffffffffffffff1673ffffffffffffffffffffffffffffffffffffffff16141561096c576040517f08c379a00000000000000000000000000000000000000000000000000000000081526004018080602001828103825260248152602001806126346024913960400191505060405180910390fd5b8260008060009054906101000a900473ffffffffffffffffffffffffffffffffffffffff1673ffffffffffffffffffffffffffffffffffffffff166378f55d6e836040518263ffffffff1660e01b81526004018082815260200191505060006040518083038186803b1580156109e157600080fd5b505afa1580156109f5573d6000803e3d6000fd5b505050506040513d6000823e3d601f19601f820116820180604052506060811015610a1f57600080fd5b81019080805190602001909291908051906020019092919080516040519392919084640100000000821115610a5357600080fd5b83820191506020820185811115610a6957600080fd5b8251866020820283011164010000000082111715610a8657600080fd5b8083526020830192505050908051906020019060200280838360005b83811015610abd578082015181840152602081019050610aa2565b50505050905001604052505050505090508073ffffffffffffffffffffffffffffffffffffffff163373ffffffffffffffffffffffffffffffffffffffff1614610b52576040517f08c379a00000000000000000000000000000000000000000000000000000000081526004018080602001828103825260248152602001806126806024913960400191505060405180910390fd5b610b5c853361223b565b7f458ca21449ef0974e9c70930ca539b54f06f7c01afbcab243e3c674eda46027a856040518082815260200191505060405180910390a1849350505050919050565b600080606083600073ffffffffffffffffffffffffffffffffffffffff16600360008373ffffffffffffffffffffffffffffffffffffffff1673ffffffffffffffffffffffffffffffffffffffff16815260200190815260200160002060000160009054906101000a900473ffffffffffffffffffffffffffffffffffffffff1673ffffffffffffffffffffffffffffffffffffffff161415610c8c576040517f08c379a00000000000000000000000000000000000000000000000000000000081526004018080602001828103825260238152602001806126a46023913960400191505060405180910390fd5b84600360008773ffffffffffffffffffffffffffffffffffffffff1673ffffffffffffffffffffffffffffffffffffffff16815260200190815260200160002060020154600360008873ffffffffffffffffffffffffffffffffffffffff1673ffffffffffffffffffffffffffffffffffffffff16815260200190815260200160002060010180805480602002602001604051908101604052809291908181526020018280548015610d5d57602002820191906000526020600020905b815481526020019060010190808311610d49575b50505050509050935093509350509193909250565b600160009054906101000a900473ffffffffffffffffffffffffffffffffffffffff1673ffffffffffffffffffffffffffffffffffffffff166351cff8d9826040518263ffffffff1660e01b8152600401808273ffffffffffffffffffffffffffffffffffffffff1673ffffffffffffffffffffffffffffffffffffffff168152602001915050600060405180830381600087803b158015610e1357600080fd5b505af1158015610e27573d6000803e3d6000fd5b5050505050565b60026020528060005260406000206000915090508060000160009054906101000a900473ffffffffffffffffffffffffffffffffffffffff16908060010154908060020154905083565b600160009054906101000a900473ffffffffffffffffffffffffffffffffffffffff1673ffffffffffffffffffffffffffffffffffffffff16636809691a826040518263ffffffff1660e01b8152600401808273ffffffffffffffffffffffffffffffffffffffff1673ffffffffffffffffffffffffffffffffffffffff168152602001915050600060405180830381600087803b158015610f1957600080fd5b505af1158015610f2d573d6000803e3d6000fd5b5050505050565b60036020528060005260406000206000915090508060000160009054906101000a900473ffffffffffffffffffffffffffffffffffffffff16908060020154905082565b600080600083600073ffffffffffffffffffffffffffffffffffffffff166002600083815260200190815260200160002060000160009054906101000a900473ffffffffffffffffffffffffffffffffffffffff1673ffffffffffffffffffffffffffffffffffffffff16141561103a576040517f08c379a00000000000000000000000000000000000000000000000000000000081526004018080602001828103825260248152602001806126346024913960400191505060405180910390fd5b60006002600087815260200190815260200160002060010154905060006002600088815260200190815260200160002060000160009054906101000a900473ffffffffffffffffffffffffffffffffffffffff1673ffffffffffffffffffffffffffffffffffffffff1663169674076040518163ffffffff1660e01b815260040160206040518083038186803b1580156110d357600080fd5b505afa1580156110e7573d6000803e3d6000fd5b505050506040513d60208110156110fd57600080fd5b8101908080519060200190929190505050905081341015611169576040517f08c379a000000000000000000000000000000000000000000000000000000000815260040180806020018281038252602f815260200180612588602f913960400191505060405180910390fd5b8073ffffffffffffffffffffffffffffffffffffffff163373ffffffffffffffffffffffffffffffffffffffff1614156111ee576040517f08c379a000000000000000000000000000000000000000000000000000000000815260040180806020018281038252603e8152602001806125b7603e913960400191505060405180910390fd5b6111f88183612449565b6000809054906101000a900473ffffffffffffffffffffffffffffffffffffffff1673ffffffffffffffffffffffffffffffffffffffff1663a865e1b68833600260008c8152602001908152602001600020600201546040518463ffffffff1660e01b8152600401808481526020018373ffffffffffffffffffffffffffffffffffffffff1673ffffffffffffffffffffffffffffffffffffffff16815260200182815260200193505050506040805180830381600087803b1580156112bd57600080fd5b505af11580156112d1573d6000803e3d6000fd5b505050506040513d60408110156112e757600080fd5b810190808051906020019092919080519060200190929190505050505061130e878261223b565b7f87a01258c3f626458b36f796313ba33d128d60c87fd279e4c1fa1c24531228f4878333604051808481526020018381526020018273ffffffffffffffffffffffffffffffffffffffff1673ffffffffffffffffffffffffffffffffffffffff168152602001935050505060405180910390a18682338090509550955095505050509193909250565b600080600083600073ffffffffffffffffffffffffffffffffffffffff166002600083815260200190815260200160002060000160009054906101000a900473ffffffffffffffffffffffffffffffffffffffff1673ffffffffffffffffffffffffffffffffffffffff161415611459576040517f08c379a00000000000000000000000000000000000000000000000000000000081526004018080602001828103825260248152602001806126346024913960400191505060405180910390fd5b8460026000878152602001908152602001600020600101546002600088815260200190815260200160002060000160009054906101000a900473ffffffffffffffffffffffffffffffffffffffff1673ffffffffffffffffffffffffffffffffffffffff1663169674076040518163ffffffff1660e01b815260040160206040518083038186803b1580156114ed57600080fd5b505afa158015611501573d6000803e3d6000fd5b505050506040513d602081101561151757600080fd5b8101908080519060200190929190505050935093509350509193909250565b60008084600073ffffffffffffffffffffffffffffffffffffffff166002600083815260200190815260200160002060000160009054906101000a900473ffffffffffffffffffffffffffffffffffffffff1673ffffffffffffffffffffffffffffffffffffffff16146115f5576040517f08c379a00000000000000000000000000000000000000000000000000000000081526004018080602001828103825260288152602001806126586028913960400191505060405180910390fd5b8560008060009054906101000a900473ffffffffffffffffffffffffffffffffffffffff1673ffffffffffffffffffffffffffffffffffffffff166378f55d6e836040518263ffffffff1660e01b81526004018082815260200191505060006040518083038186803b15801561166a57600080fd5b505afa15801561167e573d6000803e3d6000fd5b505050506040513d6000823e3d601f19601f8201168201806040525060608110156116a857600080fd5b810190808051906020019092919080519060200190929190805160405193929190846401000000008211156116dc57600080fd5b838201915060208201858111156116f257600080fd5b825186602082028301116401000000008211171561170f57600080fd5b8083526020830192505050908051906020019060200280838360005b8381101561174657808201518184015260208101905061172b565b50505050905001604052505050505090508073ffffffffffffffffffffffffffffffffffffffff163373ffffffffffffffffffffffffffffffffffffffff16146117db576040517f08c379a00000000000000000000000000000000000000000000000000000000081526004018080602001828103825260248152602001806126806024913960400191505060405180910390fd5b6000809054906101000a900473ffffffffffffffffffffffffffffffffffffffff1673ffffffffffffffffffffffffffffffffffffffff1663d47c430989886040518363ffffffff1660e01b8152600401808381526020018281526020019250505060206040518083038186803b15801561185557600080fd5b505afa158015611869573d6000803e3d6000fd5b505050506040513d602081101561187f57600080fd5b81019080805190602001909291905050506118e5576040517f08c379a000000000000000000000000000000000000000000000000000000000815260040180806020018281038252603f8152602001806125f5603f913960400191505060405180910390fd5b60008060009054906101000a900473ffffffffffffffffffffffffffffffffffffffff1673ffffffffffffffffffffffffffffffffffffffff166317e39e458a6040518263ffffffff1660e01b81526004018082815260200191505060c06040518083038186803b15801561195957600080fd5b505afa15801561196d573d6000803e3d6000fd5b505050506040513d60c081101561198357600080fd5b81019080805190602001909291908051906020019092919080519060200190929190805190602001909291908051906020019092919080519060200190929190505050505050509150506119d5612507565b60405180606001604052808373ffffffffffffffffffffffffffffffffffffffff1681526020018a815260200189815250905080600260008c815260200190815260200160002060008201518160000160006101000a81548173ffffffffffffffffffffffffffffffffffffffff021916908373ffffffffffffffffffffffffffffffffffffffff16021790555060208201518160010155604082015181600201559050506005600081548092919060010191905055506000600260008c815260200190815260200160002060000160009054906101000a900473ffffffffffffffffffffffffffffffffffffffff1673ffffffffffffffffffffffffffffffffffffffff1663169674076040518163ffffffff1660e01b815260040160206040518083038186803b158015611b0a57600080fd5b505afa158015611b1e573d6000803e3d6000fd5b505050506040513d6020811015611b3457600080fd5b8101908080519060200190929190505050905080600360008373ffffffffffffffffffffffffffffffffffffffff1673ffffffffffffffffffffffffffffffffffffffff16815260200190815260200160002060000160006101000a81548173ffffffffffffffffffffffffffffffffffffffff021916908373ffffffffffffffffffffffffffffffffffffffff160217905550600360008273ffffffffffffffffffffffffffffffffffffffff1673ffffffffffffffffffffffffffffffffffffffff1681526020019081526020016000206001018b9080600181540180825580915050906001820390600052602060002001600090919290919091505550600360008273ffffffffffffffffffffffffffffffffffffffff1673ffffffffffffffffffffffffffffffffffffffff168152602001908152602001600020600201600081548092919060010191905055506001600360008373ffffffffffffffffffffffffffffffffffffffff1673ffffffffffffffffffffffffffffffffffffffff1681526020019081526020016000206002015403600460008d8152602001908152602001600020819055507fa692f1052c9bf603c21f98ce2f8a8dcfe15c95ff64103cfa4ddcbfabe8b13c0b8b8b604051808381526020018281526020019250505060405180910390a18a8a97509750505050505050935093915050565b6000600554905090565b60046020528060005260406000206000915090505481565b6000806060611d6633610b9e565b925092509250909192565b6000600160009054906101000a900473ffffffffffffffffffffffffffffffffffffffff1673ffffffffffffffffffffffffffffffffffffffff1663e3a9db1a836040518263ffffffff1660e01b8152600401808273ffffffffffffffffffffffffffffffffffffffff1673ffffffffffffffffffffffffffffffffffffffff16815260200191505060206040518083038186803b158015611e1257600080fd5b505afa158015611e26573d6000803e3d6000fd5b505050506040513d6020811015611e3c57600080fd5b81019080805190602001909291905050509050919050565b60055481565b60008083600073ffffffffffffffffffffffffffffffffffffffff166002600083815260200190815260200160002060000160009054906101000a900473ffffffffffffffffffffffffffffffffffffffff1673ffffffffffffffffffffffffffffffffffffffff161415611f1a576040517f08c379a00000000000000000000000000000000000000000000000000000000081526004018080602001828103825260248152602001806126346024913960400191505060405180910390fd5b8460008060009054906101000a900473ffffffffffffffffffffffffffffffffffffffff1673ffffffffffffffffffffffffffffffffffffffff166378f55d6e836040518263ffffffff1660e01b81526004018082815260200191505060006040518083038186803b158015611f8f57600080fd5b505afa158015611fa3573d6000803e3d6000fd5b505050506040513d6000823e3d601f19601f820116820180604052506060811015611fcd57600080fd5b8101908080519060200190929190805190602001909291908051604051939291908464010000000082111561200157600080fd5b8382019150602082018581111561201757600080fd5b825186602082028301116401000000008211171561203457600080fd5b8083526020830192505050908051906020019060200280838360005b8381101561206b578082015181840152602081019050612050565b50505050905001604052505050505090508073ffffffffffffffffffffffffffffffffffffffff163373ffffffffffffffffffffffffffffffffffffffff1614612100576040517f08c379a00000000000000000000000000000000000000000000000000000000081526004018080602001828103825260248152602001806126806024913960400191505060405180910390fd5b8560026000898152602001908152602001600020600101819055507f302fee2b013a865ffe1a81e83fb12adb4ec3bc90fb6fdc0552206a11b48216bb8787604051808381526020018281526020019250505060405180910390a18686945094505050509250929050565b600080606061222e6002600086815260200190815260200160002060000160009054906101000a900473ffffffffffffffffffffffffffffffffffffffff1673ffffffffffffffffffffffffffffffffffffffff1663169674076040518163ffffffff1660e01b815260040160206040518083038186803b1580156121ee57600080fd5b505afa158015612202573d6000803e3d6000fd5b505050506040513d602081101561221857600080fd5b8101908080519060200190929190505050610b9e565b9250925092509193909250565b600360008273ffffffffffffffffffffffffffffffffffffffff1673ffffffffffffffffffffffffffffffffffffffff16815260200190815260200160002060020160008154809291906001900391905055506000600360008373ffffffffffffffffffffffffffffffffffffffff1673ffffffffffffffffffffffffffffffffffffffff16815260200190815260200160002060020154141561235f57600360008273ffffffffffffffffffffffffffffffffffffffff1673ffffffffffffffffffffffffffffffffffffffff168152602001908152602001600020600080820160006101000a81549073ffffffffffffffffffffffffffffffffffffffff02191690556001820160006123509190612541565b600282016000905550506123ce565b600360008273ffffffffffffffffffffffffffffffffffffffff1673ffffffffffffffffffffffffffffffffffffffff1681526020019081526020016000206001016004600084815260200190815260200160002054815481106123bf57fe5b90600052602060002001600090555b60026000838152602001908152602001600020600080820160006101000a81549073ffffffffffffffffffffffffffffffffffffffff02191690556001820160009055600282016000905550506005600081548092919060019003919050555060046000838152602001908152602001600020600090555050565b600160009054906101000a900473ffffffffffffffffffffffffffffffffffffffff1673ffffffffffffffffffffffffffffffffffffffff1663f340fa0182846040518363ffffffff1660e01b8152600401808273ffffffffffffffffffffffffffffffffffffffff1673ffffffffffffffffffffffffffffffffffffffff1681526020019150506000604051808303818588803b1580156124ea57600080fd5b505af11580156124fe573d6000803e3d6000fd5b50505050505050565b6040518060600160405280600073ffffffffffffffffffffffffffffffffffffffff16815260200160008152602001600080191681525090565b508054600082559060005260206000209081019061255f9190612562565b50565b61258491905b80821115612580576000816000905550600101612568565b5090565b9056fe4572726f72203a204e6f7420656e6f756768206d6f6e657920746f20627579207468697320736d617274206e616d654572726f72203a20596f752061726520616c7265616479207468652061646d696e6973747261746f722061766563207468697320736d617274206e616d654572726f72203a2074686520736d617274206e616d65206973206c6f636b6564206f722074686520756e6c6f636b6572206973206e6f7420636f72726563744572726f723a2054686520736d617274206e616d65206973206e6f74206f6e2073616c654572726f723a2054686520736d617274206e616d6520697320616c7265616479206f6e2073616c654572726f723a204f6e6c79207468652073656c6c657220697320617574686f72697a65644572726f723a20546869732061646472657373206973206e6f7420612073656c6c6572a265627a7a72315820f5f2882fcf8a62b1193b9543df5896014c9d4a2391e137925800f6f04e89914364736f6c634300050c003260806040526100126100da60201b60201c565b6000806101000a81548173ffffffffffffffffffffffffffffffffffffffff021916908373ffffffffffffffffffffffffffffffffffffffff1602179055507f4101e71e974f68df5e9730cc223280b41654676bbb052cdcc735c3337e64d2d96000809054906101000a900473ffffffffffffffffffffffffffffffffffffffff16604051808273ffffffffffffffffffffffffffffffffffffffff1673ffffffffffffffffffffffffffffffffffffffff16815260200191505060405180910390a16100e2565b600033905090565b610c74806100f16000396000f3fe6080604052600436106100555760003560e01c80632348238c1461005a57806351cff8d9146100ab5780636809691a146100fc578063c6dbdf611461014d578063e3a9db1a146101a4578063f340fa0114610209575b600080fd5b34801561006657600080fd5b506100a96004803603602081101561007d57600080fd5b81019080803573ffffffffffffffffffffffffffffffffffffffff16906020019092919050505061024d565b005b3480156100b757600080fd5b506100fa600480360360208110156100ce57600080fd5b81019080803573ffffffffffffffffffffffffffffffffffffffff169060200190929190505050610446565b005b34801561010857600080fd5b5061014b6004803603602081101561011f57600080fd5b81019080803573ffffffffffffffffffffffffffffffffffffffff169060200190929190505050610614565b005b34801561015957600080fd5b506101626107c4565b604051808273ffffffffffffffffffffffffffffffffffffffff1673ffffffffffffffffffffffffffffffffffffffff16815260200191505060405180910390f35b3480156101b057600080fd5b506101f3600480360360208110156101c757600080fd5b81019080803573ffffffffffffffffffffffffffffffffffffffff1690602001909291905050506107ed565b6040518082815260200191505060405180910390f35b61024b6004803603602081101561021f57600080fd5b81019080803573ffffffffffffffffffffffffffffffffffffffff169060200190929190505050610836565b005b6000809054906101000a900473ffffffffffffffffffffffffffffffffffffffff1673ffffffffffffffffffffffffffffffffffffffff1661028d6109ce565b73ffffffffffffffffffffffffffffffffffffffff16146102f9576040517f08c379a000000000000000000000000000000000000000000000000000000000815260040180806020018281038252602c815260200180610c14602c913960400191505060405180910390fd5b600073ffffffffffffffffffffffffffffffffffffffff168173ffffffffffffffffffffffffffffffffffffffff16141561037f576040517f08c379a000000000000000000000000000000000000000000000000000000000815260040180806020018281038252602a815260200180610bea602a913960400191505060405180910390fd5b806000806101000a81548173ffffffffffffffffffffffffffffffffffffffff021916908373ffffffffffffffffffffffffffffffffffffffff1602179055507f4101e71e974f68df5e9730cc223280b41654676bbb052cdcc735c3337e64d2d96000809054906101000a900473ffffffffffffffffffffffffffffffffffffffff16604051808273ffffffffffffffffffffffffffffffffffffffff1673ffffffffffffffffffffffffffffffffffffffff16815260200191505060405180910390a150565b6000809054906101000a900473ffffffffffffffffffffffffffffffffffffffff1673ffffffffffffffffffffffffffffffffffffffff166104866109ce565b73ffffffffffffffffffffffffffffffffffffffff16146104f2576040517f08c379a000000000000000000000000000000000000000000000000000000000815260040180806020018281038252602c815260200180610c14602c913960400191505060405180910390fd5b6000600160008373ffffffffffffffffffffffffffffffffffffffff1673ffffffffffffffffffffffffffffffffffffffff1681526020019081526020016000205490506000600160008473ffffffffffffffffffffffffffffffffffffffff1673ffffffffffffffffffffffffffffffffffffffff168152602001908152602001600020819055508173ffffffffffffffffffffffffffffffffffffffff166108fc829081150290604051600060405180830381858888f193505050501580156105c1573d6000803e3d6000fd5b508173ffffffffffffffffffffffffffffffffffffffff167f7084f5476618d8e60b11ef0d7d3f06914655adb8793e28ff7f018d4c76d505d5826040518082815260200191505060405180910390a25050565b6000809054906101000a900473ffffffffffffffffffffffffffffffffffffffff1673ffffffffffffffffffffffffffffffffffffffff166106546109ce565b73ffffffffffffffffffffffffffffffffffffffff16146106c0576040517f08c379a000000000000000000000000000000000000000000000000000000000815260040180806020018281038252602c815260200180610c14602c913960400191505060405180910390fd5b6000600160008373ffffffffffffffffffffffffffffffffffffffff1673ffffffffffffffffffffffffffffffffffffffff1681526020019081526020016000205490506000600160008473ffffffffffffffffffffffffffffffffffffffff1673ffffffffffffffffffffffffffffffffffffffff16815260200190815260200160002081905550610772818373ffffffffffffffffffffffffffffffffffffffff166109d690919063ffffffff16565b8173ffffffffffffffffffffffffffffffffffffffff167f7084f5476618d8e60b11ef0d7d3f06914655adb8793e28ff7f018d4c76d505d5826040518082815260200191505060405180910390a25050565b60008060009054906101000a900473ffffffffffffffffffffffffffffffffffffffff16905090565b6000600160008373ffffffffffffffffffffffffffffffffffffffff1673ffffffffffffffffffffffffffffffffffffffff168152602001908152602001600020549050919050565b6000809054906101000a900473ffffffffffffffffffffffffffffffffffffffff1673ffffffffffffffffffffffffffffffffffffffff166108766109ce565b73ffffffffffffffffffffffffffffffffffffffff16146108e2576040517f08c379a000000000000000000000000000000000000000000000000000000000815260040180806020018281038252602c815260200180610c14602c913960400191505060405180910390fd5b600034905061093981600160008573ffffffffffffffffffffffffffffffffffffffff1673ffffffffffffffffffffffffffffffffffffffff16815260200190815260200160002054610b2790919063ffffffff16565b600160008473ffffffffffffffffffffffffffffffffffffffff1673ffffffffffffffffffffffffffffffffffffffff168152602001908152602001600020819055508173ffffffffffffffffffffffffffffffffffffffff167f2da466a7b24304f47e87fa2e1e5a81b9831ce54fec19055ce277ca2f39ba42c4826040518082815260200191505060405180910390a25050565b600033905090565b803073ffffffffffffffffffffffffffffffffffffffff16311015610a63576040517f08c379a000000000000000000000000000000000000000000000000000000000815260040180806020018281038252601d8152602001807f416464726573733a20696e73756666696369656e742062616c616e636500000081525060200191505060405180910390fd5b60008273ffffffffffffffffffffffffffffffffffffffff168260405180600001905060006040518083038185875af1925050503d8060008114610ac3576040519150601f19603f3d011682016040523d82523d6000602084013e610ac8565b606091505b5050905080610b22576040517f08c379a000000000000000000000000000000000000000000000000000000000815260040180806020018281038252603a815260200180610bb0603a913960400191505060405180910390fd5b505050565b600080828401905083811015610ba5576040517f08c379a000000000000000000000000000000000000000000000000000000000815260040180806020018281038252601b8152602001807f536166654d6174683a206164646974696f6e206f766572666c6f77000000000081525060200191505060405180910390fd5b809150509291505056fe416464726573733a20756e61626c6520746f2073656e642076616c75652c20726563697069656e74206d617920686176652072657665727465645365636f6e646172793a206e6577207072696d61727920697320746865207a65726f20616464726573735365636f6e646172793a2063616c6c6572206973206e6f7420746865207072696d617279206163636f756e74a265627a7a723158202f2f7aeda436e5bcdd0c3a81c4710c03b720a39e2f827f95fe2471f1841dc95f64736f6c634300050c0032",
  "source": "pragma solidity ^0.5.0;\n\nimport \"../SmartNameService.sol\";\nimport \"../../utils/SmartNameLibrary.sol\";\nimport \"../../registry/SmartName.sol\";\n\nimport \"@openzeppelin/contracts/payment/PullPayment.sol\";\n\n/**\n * @title SmartNameMarket\n * @author Steve Despres - @stevedespres - steve.despres@protonmail.com\n * @notice This contract represents a market of smart name. Users can put on sale and buy smart names registered on a SmartNameRegistry\n */\ncontract SmartNameMarket is SmartNameService, PullPayment{\n\n    /**\n     * @notice Mapping of id and Item\n     */\n    mapping (bytes32 => Item) public items;\n\n    /**\n     * @notice Mapping of address and Seller\n     */\n    mapping (address => Seller) public sellers;\n\n    /**\n     * @notice Mapping of smart names ids and their index\n     */\n    mapping (bytes32 => uint) public indexes;\n\n    /**\n     * @notice Number of smart names to sale\n     */\n    uint public nbItemsTotal;\n\n    /**\n     * @notice Represents a seller of smart names\n     */\n    struct Seller {\n        address addr;\n        bytes32[] items;\n        uint nbItems;\n    }\n\n    /**\n     * @notice Represents an Item : smart name, its price and its unlocker\n     */\n    struct Item {\n        SmartName smartName;\n        uint price;\n        bytes32 unlocker;\n    }\n\n    /**\n     * @notice Log when a smart name is put on sale\n     * @param id id of the smartName\n     * @param price price\n     */\n    event LogForPutOnSaleOnMarket(bytes32 id, uint price);\n\n    /**\n     * @notice Log when a smart name is sale\n     * @param id id of the smartName\n     * @param price price\n     * @param buyer buyer\n     */\n    event LogForSaleOnMarket(bytes32 id, uint price, address buyer);\n\n    /**\n     * @notice Log when the price of a smart name is updated\n     * @param id id of the smart name\n     * @param price price\n     */\n    event LogForPriceUpdateOnMarket(bytes32 id, uint price);\n\n    /**\n     * @notice Log when a smart name sale is canceled\n     * @param id id of the smart name\n     */\n    event LogForCancelSaleOnMarket(bytes32 id);\n\n    /**\n     * @notice Modifier to verify that the caller is the administrator of the smart name\n     * @param _id id of the smart name\n     */\n    modifier isAdminOf(bytes32 _id)\n    {\n        (address adminAddress,,) = smartNameRegistry.getAdministratorOf(_id);\n        require(msg.sender == adminAddress, \"Error: Only the seller is authorized\");\n        _;\n    }\n\n    /**\n     * @notice Modifier to verify that the adress is a seller\n     * @param _address address\n     */\n    modifier isSeller(address _address)\n    {\n        require(sellers[_address].addr != address(0x0), \"Error: This address is not a seller\");\n        _;\n    }\n\n    /**\n     * @notice Modifier to verify that the smart name is on sale\n     * @param _id id of the smart name\n     */\n    modifier isOnSale(bytes32 _id)\n    {\n        require(items[_id].smartName != SmartName(0x0), \"Error: The smart name is not on sale\");\n        _;\n    }\n\n    /**\n     * @notice Modifier to verify that the smart name is not on sale\n     * @param _id id\n     */\n    modifier isNotOnSale(bytes32 _id)\n    {\n        require((items[_id].smartName == SmartName(0x0)),\n        \"Error: The smart name is already on sale\");\n        _;\n    }\n\n   /**\n     * @notice Constructor of a Smart name market\n     * @param _smartNameRegistryAddress SmartNameRegistry address\n     */\n    constructor(address _smartNameRegistryAddress) SmartNameService(_smartNameRegistryAddress) public\n    {}\n\n    /**\n     * @notice Put on sale a smart name\n     * @param _id id of a smart name\n     * @param _price price\n     * @return id and price\n     */\n    function sell(bytes32 _id, uint _price, bytes32 _unlocker) public\n        isNotOnSale(_id) isAdminOf(_id) returns(bytes32, uint)\n    {\n        require(smartNameRegistry.isUnlocker(_id, _unlocker), \"Error : the smart name is locked or the unlocker is not correct\");\n\n        (, SmartName smartName,,,,) = smartNameRegistry.getSmartName(_id);\n\n        // Create item\n        Item memory item = Item(smartName, _price, _unlocker);\n        items[_id] = item;\n        nbItemsTotal++;\n\n        // Update Seller\n        address sellerAddress = items[_id].smartName.getAdministrator();\n        sellers[sellerAddress].addr = sellerAddress;\n        sellers[sellerAddress].items.push(_id);\n        sellers[sellerAddress].nbItems++;\n\n        // Update index in the wallet\n        indexes[_id] = sellers[sellerAddress].nbItems-1;\n\n        emit LogForPutOnSaleOnMarket(_id, _price);\n        return (_id, _price);\n    }\n\n    /**\n     * @notice Cancel the sale of a smart name\n     * @param _id id of a smart name\n     * @return id\n     */\n    function cancelSale(bytes32 _id) public\n        isOnSale(_id) isAdminOf(_id) returns(bytes32)\n    {\n        removeItem(_id, msg.sender);\n\n        emit LogForCancelSaleOnMarket(_id);\n        return (_id);\n    }\n\n    /**\n     * @notice Buy a smart name on sale\n     * @param _id id\n     * @return id, price and buyer address\n     */\n    function buy(bytes32 _id) public payable\n        isOnSale(_id) returns(bytes32, uint, address)\n    {\n        uint price = items[_id].price;\n        address sellerAddress = items[_id].smartName.getAdministrator();\n        require(msg.value >= price, \"Error : Not enough money to buy this smart name\");\n        require(msg.sender != sellerAddress, \"Error : You are already the administrator avec this smart name\");\n\n        // Payment\n        _asyncTransfer(sellerAddress, price);\n\n        // Update SmartName\n        smartNameRegistry.modifyAdministratorWithUnlocker(_id, msg.sender, items[_id].unlocker);\n\n        // Remove Item\n        removeItem(_id, sellerAddress);\n\n        emit LogForSaleOnMarket(_id, price, msg.sender);\n        return (_id, price, msg.sender);\n    }\n\n\n    /**\n     * @notice Modify the price of a smart name\n     * @param _id id\n     * @param _newPrice new price\n     * @return id, price\n     */\n    function modifyPrice(bytes32 _id, uint _newPrice) public payable\n        isOnSale(_id) isAdminOf(_id) returns(bytes32, uint)\n    {\n        items[_id].price = _newPrice;\n\n        emit LogForPriceUpdateOnMarket(_id, _newPrice);\n        return (_id, _newPrice);\n    }\n\n    /**\n     * @notice Get item by smart name id\n     * @param _id id\n     * @return id, SmartName contract and buyer address\n     */\n    function getItem(bytes32 _id) public view\n        isOnSale(_id) returns(bytes32, uint, address)\n    {\n        return (_id, items[_id].price, items[_id].smartName.getAdministrator());\n    }\n\n    /**\n     * @notice Get seller informations\n     * @return id, SmartName contract and buyer address\n     */\n    function getSeller() public view\n        returns(address, uint, bytes32[] memory)\n    {\n        return getSellerByAddress(msg.sender);\n    }\n\n    /**\n     * @notice Get seller of a smart name\n     * @param _id id\n     * @return id, SmartName contract and buyer address\n     */\n    function getSellerOf(bytes32 _id) public view\n        returns(address, uint, bytes32[] memory)\n    {\n        return getSellerByAddress(items[_id].smartName.getAdministrator());\n    }\n\n    /**\n     * @notice Get seller by address\n     * @param _seller address of a seller\n     * @return id, SmartName contract and buyer address\n     */\n    function getSellerByAddress(address _seller) public view\n        isSeller(_seller) returns(address, uint, bytes32[] memory)\n    {\n        return (_seller, sellers[_seller].nbItems, sellers[_seller].items);\n    }\n\n    /**\n     * @notice Get number of smart names on sale\n     * @return number of smart names on sale\n     */\n    function getNbItemsTotal() public view\n        returns(uint)\n    {\n        return nbItemsTotal;\n    }\n\n    /**\n     * @notice Remove item\n     * @param _id id\n     * @param _seller seller address\n     */\n    function removeItem(bytes32 _id, address _seller) private\n    {\n        // Update Seller\n        sellers[_seller].nbItems--;\n        if (sellers[_seller].nbItems == 0) {\n            delete sellers[_seller];\n        } else {\n            delete sellers[_seller].items[indexes[_id]];\n        }\n\n        // Delete item\n        delete items[_id];\n        nbItemsTotal--;\n\n        // Update index\n        delete indexes[_id];\n    }\n}",
  "sourcePath": "/home/steve/workspace/smart-name-service-2/smart-name-service/smart-name-system-contracts/contracts/smartnamesystem/services/market/SmartNameMarket.sol",
  "compiler": {
    "name": "solc",
    "version": "0.5.12+commit.7709ece9.Emscripten.clang"
  },
  "schemaVersion": "3.0.18",
  "updatedAt": "2020-01-05T08:11:25.091Z",
  "networkType": "ethereum",
  "devdoc": {
    "author": "Steve Despres - @stevedespres - steve.despres@protonmail.com",
    "methods": {
      "buy(bytes32)": {
        "params": {
          "_id": "id"
        },
        "return": "id, price and buyer address"
      },
      "cancelSale(bytes32)": {
        "params": {
          "_id": "id of a smart name"
        },
        "return": "id"
      },
      "constructor": {
        "params": {
          "_smartNameRegistryAddress": "SmartNameRegistry address"
        }
      },
      "getItem(bytes32)": {
        "params": {
          "_id": "id"
        },
        "return": "id, SmartName contract and buyer address"
      },
      "getNbItemsTotal()": {
        "return": "number of smart names on sale"
      },
      "getSeller()": {
        "return": "id, SmartName contract and buyer address"
      },
      "getSellerByAddress(address)": {
        "params": {
          "_seller": "address of a seller"
        },
        "return": "id, SmartName contract and buyer address"
      },
      "getSellerOf(bytes32)": {
        "params": {
          "_id": "id"
        },
        "return": "id, SmartName contract and buyer address"
      },
      "modifyPrice(bytes32,uint256)": {
        "params": {
          "_id": "id",
          "_newPrice": "new price"
        },
        "return": "id, price"
      },
      "payments(address)": {
        "details": "Returns the payments owed to an address.",
        "params": {
          "dest": "The creditor's address."
        }
      },
      "sell(bytes32,uint256,bytes32)": {
        "params": {
          "_id": "id of a smart name",
          "_price": "price"
        },
        "return": "id and price"
      },
      "withdrawPayments(address)": {
        "details": "Withdraw accumulated payments.     * Note that _any_ account can call this function, not just the `payee`. This means that contracts unaware of the `PullPayment` protocol can still receive funds this way, by having a separate account call {withdrawPayments}.     * NOTE: This function has been deprecated, use {withdrawPaymentsWithGas} instead. Calling contracts with fixed gas limits is an anti-pattern and may break contract interactions in network upgrades (hardforks). https://diligence.consensys.net/blog/2019/09/stop-using-soliditys-transfer-now/[Learn more.]",
        "params": {
          "payee": "Whose payments will be withdrawn."
        }
      },
      "withdrawPaymentsWithGas(address)": {
        "details": "Same as {withdrawPayments}, but forwarding all gas to the recipient.     * WARNING: Forwarding all gas opens the door to reentrancy vulnerabilities. Make sure you trust the recipient, or are either following the checks-effects-interactions pattern or using {ReentrancyGuard}.     * _Available since v2.4.0._"
      }
    },
    "title": "SmartNameMarket"
  },
  "userdoc": {
    "methods": {
      "buy(bytes32)": {
        "notice": "Buy a smart name on sale"
      },
      "cancelSale(bytes32)": {
        "notice": "Cancel the sale of a smart name"
      },
      "constructor": "Constructor of a Smart name market",
      "getItem(bytes32)": {
        "notice": "Get item by smart name id"
      },
      "getNbItemsTotal()": {
        "notice": "Get number of smart names on sale"
      },
      "getSeller()": {
        "notice": "Get seller informations"
      },
      "getSellerByAddress(address)": {
        "notice": "Get seller by address"
      },
      "getSellerOf(bytes32)": {
        "notice": "Get seller of a smart name"
      },
      "modifyPrice(bytes32,uint256)": {
        "notice": "Modify the price of a smart name"
      },
      "sell(bytes32,uint256,bytes32)": {
        "notice": "Put on sale a smart name"
      }
    },
    "notice": "This contract represents a market of smart name. Users can put on sale and buy smart names registered on a SmartNameRegistry"
  }
}